{
  "contractName": "SolnSquareVerifier",
  "abi": [
    {
      "constant": true,
      "inputs": [
        {
          "name": "interfaceId",
          "type": "bytes4"
        }
      ],
      "name": "supportsInterface",
      "outputs": [
        {
          "name": "",
          "type": "bool"
        }
      ],
      "payable": false,
      "stateMutability": "view",
      "type": "function"
    },
    {
      "constant": true,
      "inputs": [
        {
          "name": "tokenId",
          "type": "uint256"
        }
      ],
      "name": "getApproved",
      "outputs": [
        {
          "name": "",
          "type": "address"
        }
      ],
      "payable": false,
      "stateMutability": "view",
      "type": "function"
    },
    {
      "constant": false,
      "inputs": [
        {
          "name": "to",
          "type": "address"
        },
        {
          "name": "tokenId",
          "type": "uint256"
        }
      ],
      "name": "approve",
      "outputs": [],
      "payable": false,
      "stateMutability": "nonpayable",
      "type": "function"
    },
    {
      "constant": true,
      "inputs": [],
      "name": "getSymbol",
      "outputs": [
        {
          "name": "",
          "type": "string"
        }
      ],
      "payable": false,
      "stateMutability": "view",
      "type": "function"
    },
    {
      "constant": true,
      "inputs": [],
      "name": "getName",
      "outputs": [
        {
          "name": "",
          "type": "string"
        }
      ],
      "payable": false,
      "stateMutability": "view",
      "type": "function"
    },
    {
      "constant": true,
      "inputs": [],
      "name": "totalSupply",
      "outputs": [
        {
          "name": "",
          "type": "uint256"
        }
      ],
      "payable": false,
      "stateMutability": "view",
      "type": "function"
    },
    {
      "constant": false,
      "inputs": [
        {
          "name": "from",
          "type": "address"
        },
        {
          "name": "to",
          "type": "address"
        },
        {
          "name": "tokenId",
          "type": "uint256"
        }
      ],
      "name": "transferFrom",
      "outputs": [],
      "payable": false,
      "stateMutability": "nonpayable",
      "type": "function"
    },
    {
      "constant": false,
      "inputs": [
        {
          "name": "_myid",
          "type": "bytes32"
        },
        {
          "name": "_result",
          "type": "string"
        }
      ],
      "name": "__callback",
      "outputs": [],
      "payable": false,
      "stateMutability": "nonpayable",
      "type": "function"
    },
    {
      "constant": true,
      "inputs": [
        {
          "name": "owner",
          "type": "address"
        },
        {
          "name": "index",
          "type": "uint256"
        }
      ],
      "name": "tokenOfOwnerByIndex",
      "outputs": [
        {
          "name": "",
          "type": "uint256"
        }
      ],
      "payable": false,
      "stateMutability": "view",
      "type": "function"
    },
    {
      "constant": false,
      "inputs": [
        {
          "name": "_myid",
          "type": "bytes32"
        },
        {
          "name": "_result",
          "type": "string"
        },
        {
          "name": "_proof",
          "type": "bytes"
        }
      ],
      "name": "__callback",
      "outputs": [],
      "payable": false,
      "stateMutability": "nonpayable",
      "type": "function"
    },
    {
      "constant": false,
      "inputs": [
        {
          "name": "to",
          "type": "address"
        },
        {
          "name": "tokenID",
          "type": "uint256"
        }
      ],
      "name": "mint",
      "outputs": [
        {
          "name": "",
          "type": "bool"
        }
      ],
      "payable": false,
      "stateMutability": "nonpayable",
      "type": "function"
    },
    {
      "constant": false,
      "inputs": [
        {
          "name": "from",
          "type": "address"
        },
        {
          "name": "to",
          "type": "address"
        },
        {
          "name": "tokenId",
          "type": "uint256"
        }
      ],
      "name": "safeTransferFrom",
      "outputs": [],
      "payable": false,
      "stateMutability": "nonpayable",
      "type": "function"
    },
    {
      "constant": true,
      "inputs": [],
      "name": "getbaseTokenURI",
      "outputs": [
        {
          "name": "",
          "type": "string"
        }
      ],
      "payable": false,
      "stateMutability": "view",
      "type": "function"
    },
    {
      "constant": true,
      "inputs": [
        {
          "name": "index",
          "type": "uint256"
        }
      ],
      "name": "tokenByIndex",
      "outputs": [
        {
          "name": "",
          "type": "uint256"
        }
      ],
      "payable": false,
      "stateMutability": "view",
      "type": "function"
    },
    {
      "constant": false,
      "inputs": [
        {
          "name": "a",
          "type": "uint256[2]"
        },
        {
          "name": "b",
          "type": "uint256[2][2]"
        },
        {
          "name": "c",
          "type": "uint256[2]"
        },
        {
          "name": "input",
          "type": "uint256[2]"
        }
      ],
      "name": "verifyTx",
      "outputs": [
        {
          "name": "r",
          "type": "bool"
        }
      ],
      "payable": false,
      "stateMutability": "nonpayable",
      "type": "function"
    },
    {
      "constant": true,
      "inputs": [
        {
          "name": "tokenId",
          "type": "uint256"
        }
      ],
      "name": "ownerOf",
      "outputs": [
        {
          "name": "",
          "type": "address"
        }
      ],
      "payable": false,
      "stateMutability": "view",
      "type": "function"
    },
    {
      "constant": true,
      "inputs": [
        {
          "name": "owner",
          "type": "address"
        }
      ],
      "name": "balanceOf",
      "outputs": [
        {
          "name": "",
          "type": "uint256"
        }
      ],
      "payable": false,
      "stateMutability": "view",
      "type": "function"
    },
    {
      "constant": false,
      "inputs": [],
      "name": "pause",
      "outputs": [],
      "payable": false,
      "stateMutability": "nonpayable",
      "type": "function"
    },
    {
      "constant": true,
      "inputs": [],
      "name": "owner",
      "outputs": [
        {
          "name": "",
          "type": "address"
        }
      ],
      "payable": false,
      "stateMutability": "view",
      "type": "function"
    },
    {
      "constant": true,
      "inputs": [],
      "name": "isOwner",
      "outputs": [
        {
          "name": "",
          "type": "bool"
        }
      ],
      "payable": false,
      "stateMutability": "view",
      "type": "function"
    },
    {
      "constant": false,
      "inputs": [
        {
          "name": "to",
          "type": "address"
        },
        {
          "name": "approved",
          "type": "bool"
        }
      ],
      "name": "setApprovalForAll",
      "outputs": [],
      "payable": false,
      "stateMutability": "nonpayable",
      "type": "function"
    },
    {
      "constant": true,
      "inputs": [],
      "name": "isPaused",
      "outputs": [
        {
          "name": "",
          "type": "bool"
        }
      ],
      "payable": false,
      "stateMutability": "view",
      "type": "function"
    },
    {
      "constant": false,
      "inputs": [
        {
          "name": "from",
          "type": "address"
        },
        {
          "name": "to",
          "type": "address"
        },
        {
          "name": "tokenId",
          "type": "uint256"
        },
        {
          "name": "_data",
          "type": "bytes"
        }
      ],
      "name": "safeTransferFrom",
      "outputs": [],
      "payable": false,
      "stateMutability": "nonpayable",
      "type": "function"
    },
    {
      "constant": true,
      "inputs": [
        {
          "name": "tokenId",
          "type": "uint256"
        }
      ],
      "name": "tokenURI",
      "outputs": [
        {
          "name": "",
          "type": "string"
        }
      ],
      "payable": false,
      "stateMutability": "view",
      "type": "function"
    },
    {
      "constant": true,
      "inputs": [
        {
          "name": "owner",
          "type": "address"
        },
        {
          "name": "operator",
          "type": "address"
        }
      ],
      "name": "isApprovedForAll",
      "outputs": [
        {
          "name": "",
          "type": "bool"
        }
      ],
      "payable": false,
      "stateMutability": "view",
      "type": "function"
    },
    {
      "constant": false,
      "inputs": [
        {
          "name": "newOwner",
          "type": "address"
        }
      ],
      "name": "transferOwnership",
      "outputs": [],
      "payable": false,
      "stateMutability": "nonpayable",
      "type": "function"
    },
    {
      "inputs": [
        {
          "name": "verifierAddress",
          "type": "address"
        }
      ],
      "payable": false,
      "stateMutability": "nonpayable",
      "type": "constructor"
    },
    {
      "anonymous": false,
      "inputs": [
        {
          "indexed": false,
          "name": "solutionsIndex",
          "type": "uint256"
        },
        {
          "indexed": false,
          "name": "solutionsAdd",
          "type": "address"
        }
      ],
      "name": "Added",
      "type": "event"
    },
    {
      "anonymous": false,
      "inputs": [
        {
          "indexed": false,
          "name": "s",
          "type": "string"
        }
      ],
      "name": "Verified",
      "type": "event"
    },
    {
      "anonymous": false,
      "inputs": [
        {
          "indexed": true,
          "name": "from",
          "type": "address"
        },
        {
          "indexed": true,
          "name": "to",
          "type": "address"
        },
        {
          "indexed": true,
          "name": "tokenId",
          "type": "uint256"
        }
      ],
      "name": "Transfer",
      "type": "event"
    },
    {
      "anonymous": false,
      "inputs": [
        {
          "indexed": true,
          "name": "owner",
          "type": "address"
        },
        {
          "indexed": true,
          "name": "approved",
          "type": "address"
        },
        {
          "indexed": true,
          "name": "tokenId",
          "type": "uint256"
        }
      ],
      "name": "Approval",
      "type": "event"
    },
    {
      "anonymous": false,
      "inputs": [
        {
          "indexed": true,
          "name": "owner",
          "type": "address"
        },
        {
          "indexed": true,
          "name": "operator",
          "type": "address"
        },
        {
          "indexed": false,
          "name": "approved",
          "type": "bool"
        }
      ],
      "name": "ApprovalForAll",
      "type": "event"
    },
    {
      "anonymous": false,
      "inputs": [
        {
          "indexed": false,
          "name": "personPaused",
          "type": "address"
        }
      ],
      "name": "Paused",
      "type": "event"
    },
    {
      "anonymous": false,
      "inputs": [
        {
          "indexed": false,
          "name": "personUnpaused",
          "type": "address"
        }
      ],
      "name": "Unpaused",
      "type": "event"
    },
    {
      "anonymous": false,
      "inputs": [
        {
          "indexed": true,
          "name": "oldOwner",
          "type": "address"
        },
        {
          "indexed": true,
          "name": "newOwner",
          "type": "address"
        }
      ],
      "name": "TransferOwnership",
      "type": "event"
    },
    {
      "constant": false,
      "inputs": [
        {
          "name": "recievedIndex",
          "type": "uint256"
        },
        {
          "name": "recievedAddress",
          "type": "address"
        }
      ],
      "name": "addSolution",
      "outputs": [
        {
          "name": "",
          "type": "bool"
        }
      ],
      "payable": false,
      "stateMutability": "nonpayable",
      "type": "function"
    },
    {
      "constant": false,
      "inputs": [
        {
          "name": "a",
          "type": "uint256[2]"
        },
        {
          "name": "b",
          "type": "uint256[2][2]"
        },
        {
          "name": "c",
          "type": "uint256[2]"
        },
        {
          "name": "input",
          "type": "uint256[2]"
        },
        {
          "name": "tokenId",
          "type": "uint256"
        }
      ],
      "name": "newMint",
      "outputs": [
        {
          "name": "",
          "type": "bool"
        }
      ],
      "payable": false,
      "stateMutability": "nonpayable",
      "type": "function"
    }
  ],
  "bytecode": "0x608060405260006015553480156200001657600080fd5b50604051602080620047da833981018060405260208110156200003857600080fd5b81019080805190602001909291905050506040518060400160405280600681526020017f42617368544f00000000000000000000000000000000000000000000000000008152506040518060400160405280600281526020017f42540000000000000000000000000000000000000000000000000000000000008152506040518060600160405280603f81526020016200479b603f9139336000806101000a81548173ffffffffffffffffffffffffffffffffffffffff021916908373ffffffffffffffffffffffffffffffffffffffff1602179055506000809054906101000a900473ffffffffffffffffffffffffffffffffffffffff1673ffffffffffffffffffffffffffffffffffffffff16600073ffffffffffffffffffffffffffffffffffffffff167f5c486528ec3e3f0ea91181cff8116f02bfa350e03b8b6f12e00765adbb5af85c60405160405180910390a360008060146101000a81548160ff021916908315150217905550620001bd6301ffc9a760e01b6200029b60201b60201c565b620001d56380ac58cd60e01b6200029b60201b60201c565b620001ed63780e9d6360e01b6200029b60201b60201c565b82600f9080519060200190620002059291906200033d565b5081601090805190602001906200021e9291906200033d565b508060119080519060200190620002379291906200033d565b5062000250635b5e139f60e01b6200029b60201b60201c565b50505080601360006101000a81548173ffffffffffffffffffffffffffffffffffffffff021916908373ffffffffffffffffffffffffffffffffffffffff16021790555050620003ec565b63ffffffff60e01b817bffffffffffffffffffffffffffffffffffffffffffffffffffffffff191614151515620002d157600080fd5b6001806000837bffffffffffffffffffffffffffffffffffffffffffffffffffffffff19167bffffffffffffffffffffffffffffffffffffffffffffffffffffffff1916815260200190815260200160002060006101000a81548160ff02191690831515021790555050565b828054600181600116156101000203166002900490600052602060002090601f016020900481019282601f106200038057805160ff1916838001178555620003b1565b82800160010185558215620003b1579182015b82811115620003b057825182559160200191906001019062000393565b5b509050620003c09190620003c4565b5090565b620003e991905b80821115620003e5576000816000905550600101620003cb565b5090565b90565b61439f80620003fc6000396000f3fe608060405234801561001057600080fd5b50600436106101c45760003560e01c8063621e9ec0116100f9578063b187bd2611610097578063c87b56dd11610071578063c87b56dd14610e47578063ccd0ef6914610eee578063e985e9c514610f54578063f2fde38b14610fd0576101c4565b8063b187bd2614610b9d578063b88d4fde14610bbf578063c4cf690814610cc4576101c4565b80638456cb59116100d35780638456cb5914610ad75780638da5cb5b14610ae15780638f32d59b14610b2b578063a22cb46514610b4d576101c4565b8063621e9ec0146108985780636352211e14610a1157806370a0823114610a7f576101c4565b806327dc297e1161016657806340c10f191161014057806340c10f19146106ff57806342842e0e14610765578063447ec2b7146107d35780634f6ccce714610856576101c4565b806327dc297e1461047c5780632f745c591461054157806338bbfa50146105a3576101c4565b806315070401116101a257806315070401146102ea57806317d7de7c1461036d57806318160ddd146103f057806323b872dd1461040e576101c4565b806301ffc9a7146101c9578063081812fc1461022e578063095ea7b31461029c575b600080fd5b610214600480360360208110156101df57600080fd5b8101908080357bffffffffffffffffffffffffffffffffffffffffffffffffffffffff19169060200190929190505050611014565b604051808215151515815260200191505060405180910390f35b61025a6004803603602081101561024457600080fd5b810190808035906020019092919050505061107c565b604051808273ffffffffffffffffffffffffffffffffffffffff1673ffffffffffffffffffffffffffffffffffffffff16815260200191505060405180910390f35b6102e8600480360360408110156102b257600080fd5b81019080803573ffffffffffffffffffffffffffffffffffffffff169060200190929190803590602001909291905050506110b9565b005b6102f26112c2565b6040518080602001828103825283818151815260200191508051906020019080838360005b83811015610332578082015181840152602081019050610317565b50505050905090810190601f16801561035f5780820380516001836020036101000a031916815260200191505b509250505060405180910390f35b610375611364565b6040518080602001828103825283818151815260200191508051906020019080838360005b838110156103b557808201518184015260208101905061039a565b50505050905090810190601f1680156103e25780820380516001836020036101000a031916815260200191505b509250505060405180910390f35b6103f8611406565b6040518082815260200191505060405180910390f35b61047a6004803603606081101561042457600080fd5b81019080803573ffffffffffffffffffffffffffffffffffffffff169060200190929190803573ffffffffffffffffffffffffffffffffffffffff16906020019092919080359060200190929190505050611413565b005b61053f6004803603604081101561049257600080fd5b8101908080359060200190929190803590602001906401000000008111156104b957600080fd5b8201836020820111156104cb57600080fd5b803590602001918460018302840111640100000000831117156104ed57600080fd5b91908080601f016020809104026020016040519081016040528093929190818152602001838380828437600081840152601f19601f820116905080830192505050505050509192919290505050611438565b005b61058d6004803603604081101561055757600080fd5b81019080803573ffffffffffffffffffffffffffffffffffffffff1690602001909291908035906020019092919050505061147b565b6040518082815260200191505060405180910390f35b6106fd600480360360608110156105b957600080fd5b8101908080359060200190929190803590602001906401000000008111156105e057600080fd5b8201836020820111156105f257600080fd5b8035906020019184600183028401116401000000008311171561061457600080fd5b91908080601f016020809104026020016040519081016040528093929190818152602001838380828437600081840152601f19601f8201169050808301925050505050505091929192908035906020019064010000000081111561067757600080fd5b82018360208201111561068957600080fd5b803590602001918460018302840111640100000000831117156106ab57600080fd5b91908080601f016020809104026020016040519081016040528093929190818152602001838380828437600081840152601f19601f8201169050808301925050505050505091929192905050506114f2565b005b61074b6004803603604081101561071557600080fd5b81019080803573ffffffffffffffffffffffffffffffffffffffff169060200190929190803590602001909291905050506114f7565b604051808215151515815260200191505060405180910390f35b6107d16004803603606081101561077b57600080fd5b81019080803573ffffffffffffffffffffffffffffffffffffffff169060200190929190803573ffffffffffffffffffffffffffffffffffffffff16906020019092919080359060200190929190505050611529565b005b6107db611549565b6040518080602001828103825283818151815260200191508051906020019080838360005b8381101561081b578082015181840152602081019050610800565b50505050905090810190601f1680156108485780820380516001836020036101000a031916815260200191505b509250505060405180910390f35b6108826004803603602081101561086c57600080fd5b81019080803590602001909291905050506115eb565b6040518082815260200191505060405180910390f35b6109f760048036036101408110156108af57600080fd5b8101908080604001906002806020026040519081016040528092919082600260200280828437600081840152601f19601f82011690508083019250505050505091929192908060800190600280602002604051908101604052809291906000905b82821015610964578382604002016002806020026040519081016040528092919082600260200280828437600081840152601f19601f82011690508083019250505050505081526020019060010190610910565b50505050919291929080604001906002806020026040519081016040528092919082600260200280828437600081840152601f19601f820116905080830192505050505050919291929080604001906002806020026040519081016040528092919082600260200280828437600081840152601f19601f8201169050808301925050505050509192919290505050611623565b604051808215151515815260200191505060405180910390f35b610a3d60048036036020811015610a2757600080fd5b8101908080359060200190929190505050611888565b604051808273ffffffffffffffffffffffffffffffffffffffff1673ffffffffffffffffffffffffffffffffffffffff16815260200191505060405180910390f35b610ac160048036036020811015610a9557600080fd5b81019080803573ffffffffffffffffffffffffffffffffffffffff1690602001909291905050506118c5565b6040518082815260200191505060405180910390f35b610adf611915565b005b610ae9611a25565b604051808273ffffffffffffffffffffffffffffffffffffffff1673ffffffffffffffffffffffffffffffffffffffff16815260200191505060405180910390f35b610b33611a4e565b604051808215151515815260200191505060405180910390f35b610b9b60048036036040811015610b6357600080fd5b81019080803573ffffffffffffffffffffffffffffffffffffffff169060200190929190803515159060200190929190505050611aa5565b005b610ba5611be1565b604051808215151515815260200191505060405180910390f35b610cc260048036036080811015610bd557600080fd5b81019080803573ffffffffffffffffffffffffffffffffffffffff169060200190929190803573ffffffffffffffffffffffffffffffffffffffff1690602001909291908035906020019092919080359060200190640100000000811115610c3c57600080fd5b820183602082011115610c4e57600080fd5b80359060200191846001830284011164010000000083111715610c7057600080fd5b91908080601f016020809104026020016040519081016040528093929190818152602001838380828437600081840152601f19601f820116905080830192505050505050509192919290505050611bf7565b005b610e2d6004803603610160811015610cdb57600080fd5b8101908080604001906002806020026040519081016040528092919082600260200280828437600081840152601f19601f82011690508083019250505050505091929192908060800190600280602002604051908101604052809291906000905b82821015610d90578382604002016002806020026040519081016040528092919082600260200280828437600081840152601f19601f82011690508083019250505050505081526020019060010190610d3c565b50505050919291929080604001906002806020026040519081016040528092919082600260200280828437600081840152601f19601f820116905080830192505050505050919291929080604001906002806020026040519081016040528092919082600260200280828437600081840152601f19601f820116905080830192505050505050919291929080359060200190929190505050611c1f565b604051808215151515815260200191505060405180910390f35b610e7360048036036020811015610e5d57600080fd5b8101908080359060200190929190505050611f47565b6040518080602001828103825283818151815260200191508051906020019080838360005b83811015610eb3578082015181840152602081019050610e98565b50505050905090810190601f168015610ee05780820380516001836020036101000a031916815260200191505b509250505060405180910390f35b610f3a60048036036040811015610f0457600080fd5b8101908080359060200190929190803573ffffffffffffffffffffffffffffffffffffffff169060200190929190505050612010565b604051808215151515815260200191505060405180910390f35b610fb660048036036040811015610f6a57600080fd5b81019080803573ffffffffffffffffffffffffffffffffffffffff169060200190929190803573ffffffffffffffffffffffffffffffffffffffff1690602001909291905050506121f5565b604051808215151515815260200191505060405180910390f35b61101260048036036020811015610fe657600080fd5b81019080803573ffffffffffffffffffffffffffffffffffffffff169060200190929190505050612289565b005b600060016000837bffffffffffffffffffffffffffffffffffffffffffffffffffffffff19167bffffffffffffffffffffffffffffffffffffffffffffffffffffffff1916815260200190815260200160002060009054906101000a900460ff169050919050565b60006003600083815260200190815260200160002060009054906101000a900473ffffffffffffffffffffffffffffffffffffffff169050919050565b6110c281611888565b73ffffffffffffffffffffffffffffffffffffffff168273ffffffffffffffffffffffffffffffffffffffff1614151515611165576040517f08c379a00000000000000000000000000000000000000000000000000000000081526004018080602001828103825260208152602001807f6973207468652073616d65206f776e6572206f662074686520746f6b656e496481525060200191505060405180910390fd5b61116d611a25565b73ffffffffffffffffffffffffffffffffffffffff163373ffffffffffffffffffffffffffffffffffffffff1614806111ba5750600115156111b66111b0611a25565b336121f5565b1515145b1515611211576040517f08c379a000000000000000000000000000000000000000000000000000000000815260040180806020018281038252602881526020018061431b6028913960400191505060405180910390fd5b816003600083815260200190815260200160002060006101000a81548173ffffffffffffffffffffffffffffffffffffffff021916908373ffffffffffffffffffffffffffffffffffffffff160217905550808273ffffffffffffffffffffffffffffffffffffffff163373ffffffffffffffffffffffffffffffffffffffff167f8c5be1e5ebec7d5bd14f71427d1e84f3dd0314c0f7b2291e5b200ac8c7c3b92560405160405180910390a45050565b606060108054600181600116156101000203166002900480601f01602080910402602001604051908101604052809291908181526020018280546001816001161561010002031660029004801561135a5780601f1061132f5761010080835404028352916020019161135a565b820191906000526020600020905b81548152906001019060200180831161133d57829003601f168201915b5050505050905090565b6060600f8054600181600116156101000203166002900480601f0160208091040260200160405190810160405280929190818152602001828054600181600116156101000203166002900480156113fc5780601f106113d1576101008083540402835291602001916113fc565b820191906000526020600020905b8154815290600101906020018083116113df57829003601f168201915b5050505050905090565b6000600880549050905090565b61141d33826122a8565b151561142857600080fd5b61143383838361233d565b505050565b611477828260006040519080825280601f01601f1916602001820160405280156114715781602001600182028038833980820191505090505b506114f2565b5050565b6000611486836118c5565b8210151561149357600080fd5b600660008473ffffffffffffffffffffffffffffffffffffffff1673ffffffffffffffffffffffffffffffffffffffff168152602001908152602001600020828154811015156114df57fe5b9060005260206000200154905092915050565b505050565b6000611501611a4e565b151561150c57600080fd5b6115168383612361565b61151f82612382565b6001905092915050565b61154483838360405180602001604052806000815250611bf7565b505050565b606060118054600181600116156101000203166002900480601f0160208091040260200160405190810160405280929190818152602001828054600181600116156101000203166002900480156115e15780601f106115b6576101008083540402835291602001916115e1565b820191906000526020600020905b8154815290600101906020018083116115c457829003601f168201915b5050505050905090565b60006115f5611406565b8210151561160257600080fd5b60088281548110151561161157fe5b90600052602060002001549050919050565b600061162d6140a2565b604051806040016040528087600060028110151561164757fe5b6020020151815260200187600160028110151561166057fe5b602002015181525081600001819052506040518060400160405280604051806040016040528088600060028110151561169557fe5b602002015160006002811015156116a857fe5b602002015181526020018860006002811015156116c157fe5b602002015160016002811015156116d457fe5b6020020151815250815260200160405180604001604052808860016002811015156116fb57fe5b6020020151600060028110151561170e57fe5b6020020151815260200188600160028110151561172757fe5b6020020151600160028110151561173a57fe5b60200201518152508152508160200181905250604051806040016040528085600060028110151561176757fe5b6020020151815260200185600160028110151561178057fe5b60200201518152508160400181905250606060026040519080825280602002602001820160405280156117c25781602001602082028038833980820191505090505b50905060008090505b60028110156118105784816002811015156117e257fe5b602002015182828151811015156117f557fe5b906020019060200201818152505080806001019150506117cb565b50600061181d82846124d5565b1415611879577f3f3cfdb26fb5f9f1786ab4f1a1f9cd4c0b5e726cbdfc26e495261731aad44e396040518080602001828103825260228152602001806142f96022913960400191505060405180910390a1600192505050611880565b6000925050505b949350505050565b60006002600083815260200190815260200160002060009054906101000a900473ffffffffffffffffffffffffffffffffffffffff169050919050565b600061190e600460008473ffffffffffffffffffffffffffffffffffffffff1673ffffffffffffffffffffffffffffffffffffffff168152602001908152602001600020612612565b9050919050565b61191d611be1565b151515611992576040517f08c379a00000000000000000000000000000000000000000000000000000000081526004018080602001828103825260108152602001807f5061757361626c653a207061757365640000000000000000000000000000000081525060200191505060405180910390fd5b61199a611a4e565b15156119a557600080fd5b6001600060146101000a81548160ff0219169083151502179055507f62e78cea01bee320cd4e420270b5ea74000d11b0c9f74754ebdbfc544b05a25833604051808273ffffffffffffffffffffffffffffffffffffffff1673ffffffffffffffffffffffffffffffffffffffff16815260200191505060405180910390a1565b60008060009054906101000a900473ffffffffffffffffffffffffffffffffffffffff16905090565b60008060009054906101000a900473ffffffffffffffffffffffffffffffffffffffff1673ffffffffffffffffffffffffffffffffffffffff163373ffffffffffffffffffffffffffffffffffffffff1614905090565b3373ffffffffffffffffffffffffffffffffffffffff168273ffffffffffffffffffffffffffffffffffffffff1614151515611ae057600080fd5b80600560003373ffffffffffffffffffffffffffffffffffffffff1673ffffffffffffffffffffffffffffffffffffffff16815260200190815260200160002060008473ffffffffffffffffffffffffffffffffffffffff1673ffffffffffffffffffffffffffffffffffffffff16815260200190815260200160002060006101000a81548160ff0219169083151502179055508173ffffffffffffffffffffffffffffffffffffffff163373ffffffffffffffffffffffffffffffffffffffff167f17307eab39ab6107e8899845ad3d59bd9653f200f220920489ca2b5937696c3183604051808215151515815260200191505060405180910390a35050565b60008060149054906101000a900460ff16905090565b611c02848484611413565b611c0e84848484612620565b1515611c1957600080fd5b50505050565b60008073ffffffffffffffffffffffffffffffffffffffff16601660003373ffffffffffffffffffffffffffffffffffffffff1673ffffffffffffffffffffffffffffffffffffffff16815260200190815260200160002060010160009054906101000a900473ffffffffffffffffffffffffffffffffffffffff1673ffffffffffffffffffffffffffffffffffffffff16141515611d26576040517f08c379a000000000000000000000000000000000000000000000000000000000815260040180806020018281038252601a8152602001807f54686520736f6c7574696f6e206973206e6f7420756e6971756500000000000081525060200191505060405180910390fd5b601360009054906101000a900473ffffffffffffffffffffffffffffffffffffffff1673ffffffffffffffffffffffffffffffffffffffff1663621e9ec0878787876040518563ffffffff1660e01b81526004018085600260200280838360005b83811015611da2578082015181840152602081019050611d87565b505050509050018460026000925b81841015611df65782846020020151600260200280838360005b83811015611de5578082015181840152602081019050611dca565b505050509050019260010192611db0565b9250505083600260200280838360005b83811015611e21578082015181840152602081019050611e06565b5050505090500182600260200280838360005b83811015611e4f578082015181840152602081019050611e34565b50505050905001945050505050602060405180830381600087803b158015611e7657600080fd5b505af1158015611e8a573d6000803e3d6000fd5b505050506040513d6020811015611ea057600080fd5b81019080805190602001909291905050501515611f25576040517f08c379a00000000000000000000000000000000000000000000000000000000081526004018080602001828103825260138152602001807f566572696669636174696f6e206661696c65640000000000000000000000000081525060200191505060405180910390fd5b611f2f8233612010565b50611f3a3383612361565b6001905095945050505050565b6060611f528261280b565b1515611f5d57600080fd5b601260008381526020019081526020016000208054600181600116156101000203166002900480601f0160208091040260200160405190810160405280929190818152602001828054600181600116156101000203166002900480156120045780601f10611fd957610100808354040283529160200191612004565b820191906000526020600020905b815481529060010190602001808311611fe757829003601f168201915b50505050509050919050565b600060405180604001604052808481526020018373ffffffffffffffffffffffffffffffffffffffff16815250601460155481548110151561204e57fe5b90600052602060002090600202016000820151816000015560208201518160010160006101000a81548173ffffffffffffffffffffffffffffffffffffffff021916908373ffffffffffffffffffffffffffffffffffffffff16021790555090505060405180604001604052808481526020018373ffffffffffffffffffffffffffffffffffffffff16815250601660003373ffffffffffffffffffffffffffffffffffffffff1673ffffffffffffffffffffffffffffffffffffffff1681526020019081526020016000206000820151816000015560208201518160010160006101000a81548173ffffffffffffffffffffffffffffffffffffffff021916908373ffffffffffffffffffffffffffffffffffffffff1602179055509050506015600081548092919060010191905055507f8ba5cdc385bc6c37c9a05ad09fbc238589c43602f4cee09c46856027df8a935a8383604051808381526020018273ffffffffffffffffffffffffffffffffffffffff1673ffffffffffffffffffffffffffffffffffffffff1681526020019250505060405180910390a16001905092915050565b6000600560008473ffffffffffffffffffffffffffffffffffffffff1673ffffffffffffffffffffffffffffffffffffffff16815260200190815260200160002060008373ffffffffffffffffffffffffffffffffffffffff1673ffffffffffffffffffffffffffffffffffffffff16815260200190815260200160002060009054906101000a900460ff16905092915050565b612291611a4e565b151561229c57600080fd5b6122a58161287d565b50565b6000806122b483611888565b90508073ffffffffffffffffffffffffffffffffffffffff168473ffffffffffffffffffffffffffffffffffffffff16148061232357508373ffffffffffffffffffffffffffffffffffffffff1661230b8461107c565b73ffffffffffffffffffffffffffffffffffffffff16145b80612334575061233381856121f5565b5b91505092915050565b612348838383612977565b6123528382612c2a565b61235c8282612dce565b505050565b61236b8282612e95565b6123758282612dce565b61237e81613064565b5050565b61238b8161280b565b15156123ff576040517f08c379a00000000000000000000000000000000000000000000000000000000081526004018080602001828103825260158152602001807f746f6b656e494420646f65736e7420657869737473000000000000000000000081525060200191505060405180910390fd5b6124ab60118054600181600116156101000203166002900480601f0160208091040260200160405190810160405280929190818152602001828054600181600116156101000203166002900480156124985780601f1061246d57610100808354040283529160200191612498565b820191906000526020600020905b81548152906001019060200180831161247b57829003601f168201915b50505050506124a6836130b0565b6131ea565b6012600083815260200190815260200160002090805190602001906124d19291906140d6565b5050565b60006124df614156565b6124e761322e565b9050806080015151600185510114151561250057600080fd5b61250861419e565b6040518060400160405280600081526020016000815250905060008090505b8551811015612587576125788261257385608001516001850181518110151561254c57fe5b90602001906020020151898581518110151561256457fe5b90602001906020020151613688565b613724565b91508080600101915050612527565b506125ae818360800151600081518110151561259f57fe5b90602001906020020151613724565b90506125f4846000015185602001516125c6846137e1565b85604001516125d889604001516137e1565b87606001516125ea89600001516137e1565b896020015161387d565b15156126055760019250505061260c565b6000925050505b92915050565b600081600001549050919050565b60006126418473ffffffffffffffffffffffffffffffffffffffff16613a01565b15156126505760019050612803565b60008473ffffffffffffffffffffffffffffffffffffffff1663150b7a02338887876040518563ffffffff1660e01b8152600401808573ffffffffffffffffffffffffffffffffffffffff1673ffffffffffffffffffffffffffffffffffffffff1681526020018473ffffffffffffffffffffffffffffffffffffffff1673ffffffffffffffffffffffffffffffffffffffff16815260200183815260200180602001828103825283818151815260200191508051906020019080838360005b8381101561272b578082015181840152602081019050612710565b50505050905090810190601f1680156127585780820380516001836020036101000a031916815260200191505b5095505050505050602060405180830381600087803b15801561277a57600080fd5b505af115801561278e573d6000803e3d6000fd5b505050506040513d60208110156127a457600080fd5b8101908080519060200190929190505050905063150b7a0260e01b7bffffffffffffffffffffffffffffffffffffffffffffffffffffffff1916817bffffffffffffffffffffffffffffffffffffffffffffffffffffffff1916149150505b949350505050565b6000806002600084815260200190815260200160002060009054906101000a900473ffffffffffffffffffffffffffffffffffffffff169050600073ffffffffffffffffffffffffffffffffffffffff168173ffffffffffffffffffffffffffffffffffffffff161415915050919050565b600073ffffffffffffffffffffffffffffffffffffffff168173ffffffffffffffffffffffffffffffffffffffff16141515156128b957600080fd5b8073ffffffffffffffffffffffffffffffffffffffff166000809054906101000a900473ffffffffffffffffffffffffffffffffffffffff1673ffffffffffffffffffffffffffffffffffffffff167f5c486528ec3e3f0ea91181cff8116f02bfa350e03b8b6f12e00765adbb5af85c60405160405180910390a3806000806101000a81548173ffffffffffffffffffffffffffffffffffffffff021916908373ffffffffffffffffffffffffffffffffffffffff16021790555050565b61298081611888565b73ffffffffffffffffffffffffffffffffffffffff168373ffffffffffffffffffffffffffffffffffffffff16141515612a05576040517f08c379a00000000000000000000000000000000000000000000000000000000081526004018080602001828103825260318152602001806143436031913960400191505060405180910390fd5b8173ffffffffffffffffffffffffffffffffffffffff168273ffffffffffffffffffffffffffffffffffffffff16148015612a6d5750600073ffffffffffffffffffffffffffffffffffffffff168273ffffffffffffffffffffffffffffffffffffffff1614155b1515612ae1576040517f08c379a000000000000000000000000000000000000000000000000000000000815260040180806020018281038252601a8152602001807f496e76616c6964207472616e736665726564206164647265737300000000000081525060200191505060405180910390fd5b612aea81613a14565b612b31600460008573ffffffffffffffffffffffffffffffffffffffff1673ffffffffffffffffffffffffffffffffffffffff168152602001908152602001600020613ad4565b816002600083815260200190815260200160002060006101000a81548173ffffffffffffffffffffffffffffffffffffffff021916908373ffffffffffffffffffffffffffffffffffffffff160217905550612bca600460008473ffffffffffffffffffffffffffffffffffffffff1673ffffffffffffffffffffffffffffffffffffffff168152602001908152602001600020613af7565b808273ffffffffffffffffffffffffffffffffffffffff168473ffffffffffffffffffffffffffffffffffffffff167fddf252ad1be2c89b69c2b068fc378daa952ba7f163c4a11628f55a4df523b3ef60405160405180910390a4505050565b6000612c826001600660008673ffffffffffffffffffffffffffffffffffffffff1673ffffffffffffffffffffffffffffffffffffffff16815260200190815260200160002080549050613b0d90919063ffffffff16565b90506000600760008481526020019081526020016000205490508181141515612d75576000600660008673ffffffffffffffffffffffffffffffffffffffff1673ffffffffffffffffffffffffffffffffffffffff16815260200190815260200160002083815481101515612cf357fe5b9060005260206000200154905080600660008773ffffffffffffffffffffffffffffffffffffffff1673ffffffffffffffffffffffffffffffffffffffff16815260200190815260200160002083815481101515612d4d57fe5b9060005260206000200181905550816007600083815260200190815260200160002081905550505b600660008573ffffffffffffffffffffffffffffffffffffffff1673ffffffffffffffffffffffffffffffffffffffff168152602001908152602001600020805480919060019003612dc791906141b8565b5050505050565b600660008373ffffffffffffffffffffffffffffffffffffffff1673ffffffffffffffffffffffffffffffffffffffff168152602001908152602001600020805490506007600083815260200190815260200160002081905550600660008373ffffffffffffffffffffffffffffffffffffffff1673ffffffffffffffffffffffffffffffffffffffff1681526020019081526020016000208190806001815401808255809150509060018203906000526020600020016000909192909190915055505050565b60001515612ea28261280b565b15151480612f1457508173ffffffffffffffffffffffffffffffffffffffff168273ffffffffffffffffffffffffffffffffffffffff16148015612f135750600073ffffffffffffffffffffffffffffffffffffffff168273ffffffffffffffffffffffffffffffffffffffff1614155b5b1515612f6b576040517f08c379a00000000000000000000000000000000000000000000000000000000081526004018080602001828103825260278152602001806142d26027913960400191505060405180910390fd5b816002600083815260200190815260200160002060006101000a81548173ffffffffffffffffffffffffffffffffffffffff021916908373ffffffffffffffffffffffffffffffffffffffff160217905550613004600460008473ffffffffffffffffffffffffffffffffffffffff1673ffffffffffffffffffffffffffffffffffffffff168152602001908152602001600020613af7565b808273ffffffffffffffffffffffffffffffffffffffff16600073ffffffffffffffffffffffffffffffffffffffff167fddf252ad1be2c89b69c2b068fc378daa952ba7f163c4a11628f55a4df523b3ef60405160405180910390a45050565b6008805490506009600083815260200190815260200160002081905550600881908060018154018082558091505090600182039060005260206000200160009091929091909150555050565b606060008214156130f8576040518060400160405280600181526020017f300000000000000000000000000000000000000000000000000000000000000081525090506131e5565b600082905060005b600082141515613126578080600101915050600a8281151561311e57fe5b049150613100565b6060816040519080825280601f01601f19166020018201604052801561315b5781602001600182028038833980820191505090505b50905060006001830390505b6000861415156131dd57600a8681151561317d57fe5b0660300160f81b82828060019003935081518110151561319957fe5b9060200101907effffffffffffffffffffffffffffffffffffffffffffffffffffffffffffff1916908160001a905350600a868115156131d557fe5b049550613167565b819450505050505b919050565b60606132268383604051806020016040528060008152506040518060200160405280600081525060405180602001604052806000815250613b2f565b905092915050565b613236614156565b60405180604001604052807f02c1b25e041091cccada898fd9b198a8068fc7fcc267ba9412216dfbe274503881526020017f0b7a57f2cc8285a2071b2ed2156748c3b4c5c077e0d42ca86791495db129074f8152508160000181905250604051806040016040528060405180604001604052807f0279b5750605052e8346febe7d395852ae9d19e0cfb25bc129d1368b9f899a8481526020017f0f5b0c10181513ec6e0353db530d5f3897fd6362831f586a4a710373a8a37e86815250815260200160405180604001604052807f1283defdbc69c9d05f7de3884363f793400623be8b9a953e54f413f79125754781526020017f04173c35a00f35d48331fad476e40ba907e35e2e4a4685764a709945a59307618152508152508160200181905250604051806040016040528060405180604001604052807f0c01078b0a483b8b2f7735366f31e553fc1cbd1d28cc1ec4ddaeb5a5c328c60b81526020017f05fd03b55db10ebf6e94486cb297f7046ac4f498030fe0b07bb2412e4ebab1b4815250815260200160405180604001604052807f1354e1c531ccfed473c95c24e250f62bb5ecba1175aa36694eb201a7a57e2bd181526020017f0c125c64e0bce235ded2a3cb791da11c1ec32e6c7c56c7366948c2acb184e33b8152508152508160400181905250604051806040016040528060405180604001604052807f238efcd46ae03ee062e12ba6a16e3823f59ee23702b8aec8351b3080609bb91381526020017f17b3813917e2d44ebdebcea586a66ec25e850e232d8a674171f8ceea68cd6f7c815250815260200160405180604001604052807f17565acabf8b35513a18d6cf07f8cc109390bb88e9c407a7ddc8b2e150f57f6e81526020017f2518672b2ee871bc90eae46e6fe5c1e93c0deac8bf1db05819e339be758f1e9a8152508152508160600181905250600360405190808252806020026020018201604052801561351d57816020015b61350a6141e4565b8152602001906001900390816135025790505b50816080018190525060405180604001604052807f2c88ade00cfb679dc7b83c6dcd4fcfcf98f87a16fbb4a4112c297951fee50c5781526020017f2f297ff2347fb3a236186165fe1d80fcf3ae318b15aca3cd5630e983834c12818152508160800151600081518110151561358e57fe5b9060200190602002018190525060405180604001604052807f08432c1e398515ad73313d552981bcabefb0ef020b5709d1f3f483b8f0f668fb81526020017f13d1e81e40ce459189061767aaf25bbc30ccc1faa8a4c02f89a0dbd6df0f0afb8152508160800151600181518110151561360357fe5b9060200190602002018190525060405180604001604052807f0169a3297e146a03870ca87ef8b64302f9d2cb95fe309156ea9bf39233184fd981526020017f17fb4007a3c57eb1df37d363be99e3c18ca10783a2c2eb423608b53cc9240ae48152508160800151600281518110151561367857fe5b9060200190602002018190525090565b61369061419e565b6136986141fe565b83600001518160006003811015156136ac57fe5b60200201818152505083602001518160016003811015156136c957fe5b602002018181525050828160026003811015156136e257fe5b6020020181815250506000606083608084600060076107d05a03f19050806000811461370d5761370f565bfe5b5080151561371c57600080fd5b505092915050565b61372c61419e565b613734614220565b836000015181600060048110151561374857fe5b602002018181525050836020015181600160048110151561376557fe5b602002018181525050826000015181600260048110151561378257fe5b602002018181525050826020015181600360048110151561379f57fe5b602002018181525050600060608360c084600060066107d05a03f1905080600081146137ca576137cc565bfe5b508015156137d957600080fd5b505092915050565b6137e961419e565b60007f30644e72e131a029b85045b68181585d97816a916871ca8d3c208c16d87cfd47905060008360000151148015613826575060008360200151145b1561384a576040518060400160405280600081526020016000815250915050613878565b60405180604001604052808460000151815260200182856020015181151561386e57fe5b0683038152509150505b919050565b6000606060046040519080825280602002602001820160405280156138bc57816020015b6138a96141e4565b8152602001906001900390816138a15790505b509050606060046040519080825280602002602001820160405280156138fc57816020015b6138e9614242565b8152602001906001900390816138e15790505b5090508a82600081518110151561390f57fe5b906020019060200201819052508882600181518110151561392c57fe5b906020019060200201819052508682600281518110151561394957fe5b906020019060200201819052508482600381518110151561396657fe5b906020019060200201819052508981600081518110151561398357fe5b90602001906020020181905250878160018151811015156139a057fe5b90602001906020020181905250858160028151811015156139bd57fe5b90602001906020020181905250838160038151811015156139da57fe5b906020019060200201819052506139f18282613e0f565b9250505098975050505050505050565b600080823b905060008111915050919050565b600073ffffffffffffffffffffffffffffffffffffffff166003600083815260200190815260200160002060009054906101000a900473ffffffffffffffffffffffffffffffffffffffff1673ffffffffffffffffffffffffffffffffffffffff16141515613ad15760006003600083815260200190815260200160002060006101000a81548173ffffffffffffffffffffffffffffffffffffffff021916908373ffffffffffffffffffffffffffffffffffffffff1602179055505b50565b613aec60018260000154613b0d90919063ffffffff16565b816000018190555050565b6001816000016000828254019250508190555050565b6000828211151515613b1e57600080fd5b600082840390508091505092915050565b6060808690506060869050606086905060608690506060869050606081518351855187518951010101016040519080825280601f01601f191660200182016040528015613b8b5781602001600182028038833980820191505090505b509050606081905060008090506000809050600090505b8851811015613c16578881815181101515613bb957fe5b90602001015160f81c60f81b8383806001019450815181101515613bd957fe5b9060200101907effffffffffffffffffffffffffffffffffffffffffffffffffffffffffffff1916908160001a9053508080600101915050613ba2565b600090505b8751811015613c8f578781815181101515613c3257fe5b90602001015160f81c60f81b8383806001019450815181101515613c5257fe5b9060200101907effffffffffffffffffffffffffffffffffffffffffffffffffffffffffffff1916908160001a9053508080600101915050613c1b565b600090505b8651811015613d08578681815181101515613cab57fe5b90602001015160f81c60f81b8383806001019450815181101515613ccb57fe5b9060200101907effffffffffffffffffffffffffffffffffffffffffffffffffffffffffffff1916908160001a9053508080600101915050613c94565b600090505b8551811015613d81578581815181101515613d2457fe5b90602001015160f81c60f81b8383806001019450815181101515613d4457fe5b9060200101907effffffffffffffffffffffffffffffffffffffffffffffffffffffffffffff1916908160001a9053508080600101915050613d0d565b600090505b8451811015613dfa578481815181101515613d9d57fe5b90602001015160f81c60f81b8383806001019450815181101515613dbd57fe5b9060200101907effffffffffffffffffffffffffffffffffffffffffffffffffffffffffffff1916908160001a9053508080600101915050613d86565b82995050505050505050505095945050505050565b600081518351141515613e2157600080fd5b6000835190506000600682029050606081604051908082528060200260200182016040528015613e605781602001602082028038833980820191505090505b50905060008090505b8381101561403e578681815181101515613e7f57fe5b90602001906020020151600001518260006006840201815181101515613ea157fe5b90602001906020020181815250508681815181101515613ebd57fe5b90602001906020020151602001518260016006840201815181101515613edf57fe5b90602001906020020181815250508581815181101515613efb57fe5b90602001906020020151600001516000600281101515613f1757fe5b60200201518260026006840201815181101515613f3057fe5b90602001906020020181815250508581815181101515613f4c57fe5b90602001906020020151600001516001600281101515613f6857fe5b60200201518260036006840201815181101515613f8157fe5b90602001906020020181815250508581815181101515613f9d57fe5b90602001906020020151602001516000600281101515613fb957fe5b60200201518260046006840201815181101515613fd257fe5b90602001906020020181815250508581815181101515613fee57fe5b9060200190602002015160200151600160028110151561400a57fe5b6020020151826005600684020181518110151561402357fe5b90602001906020020181815250508080600101915050613e69565b50614047614268565b60006020826020860260208601600060086107d05a03f19050806000811461406e57614070565bfe5b5080151561407d57600080fd5b600082600060018110151561408e57fe5b602002015114159550505050505092915050565b6040518061010001604052806140b66141e4565b81526020016140c3614242565b81526020016140d06141e4565b81525090565b828054600181600116156101000203166002900490600052602060002090601f016020900481019282601f1061411757805160ff1916838001178555614145565b82800160010185558215614145579182015b82811115614144578251825591602001919060010190614129565b5b509050614152919061428a565b5090565b604051806101e0016040528061416a6141e4565b8152602001614177614242565b8152602001614184614242565b8152602001614191614242565b8152602001606081525090565b604051806040016040528060008152602001600081525090565b8154818355818111156141df578183600052602060002091820191016141de919061428a565b5b505050565b604051806040016040528060008152602001600081525090565b6040518060600160405280600390602082028038833980820191505090505090565b6040518060800160405280600490602082028038833980820191505090505090565b60405180608001604052806142556142af565b81526020016142626142af565b81525090565b6040518060200160405280600190602082028038833980820191505090505090565b6142ac91905b808211156142a8576000816000905550600101614290565b5090565b90565b604051806040016040528060029060208202803883398082019150509050509056fe546f6b656e20616c726561647920657869737473206f7220496e76616c696420616464726573735472616e73616374696f6e207375636365737366756c6c792076657269666965642e6973206e6f74206f776e6572204f72206973206e6f74206973417070726f766564466f72416c6c205468652073656e6465722061646472657373206973206e6f7420746865206f776e6572206f66207468697320746f6b656ea165627a7a723058208b98ece6fbbadf3dc23a6f38f6c8a73995855736962de0caafe55c09d60bc9a0002968747470733a2f2f73332d75732d776573742d322e616d617a6f6e6177732e636f6d2f756461636974792d626c6f636b636861696e2f63617073746f6e652f",
  "source": "pragma solidity >=0.4.21 <0.6.0;\n\n// TODO define a contract call to the zokrates generated solidity contract <Verifier> or <renamedVerifier>\nimport './Verifier.sol';\nimport './ERC721Mintable.sol';\n\n\n// TODO define another contract named SolnSquareVerifier that inherits from your ERC721Mintable class\ncontract SolnSquareVerifier is CustomERC721Token, Verifier {\n\n    constructor(address verifierAddress) public \n    {\n        verifier = Verifier(verifierAddress);\n    }\n\n    // \n    Verifier private verifier;\n\n    // TODO define a solutions struct that can hold an index & an address\n    struct solutions {\n        uint256 index;\n        address Address;\n    }\n\n    // TODO define an array of the above struct\n    solutions[] private sol;\n\n    // solutions array counter \n    uint256 counter = 0;\n\n    // TODO define a mapping to store unique solutions submitted\n    mapping(address => solutions ) private store;\n\n\n    // TODO Create an event to emit when a solution is added\n    event Added(uint256 solutionsIndex, address solutionsAdd);\n\n\n    // TODO Create a function to add the solutions to the array and emit the event\n    function addSolution(\n                            uint256 recievedIndex,\n                            address recievedAddress\n                        )\n                        public\n                        returns(bool)\n    {\n        sol[counter] = solutions(recievedIndex, recievedAddress);\n        store[msg.sender] = solutions(recievedIndex, recievedAddress);\n        counter++;\n        emit Added(recievedIndex, recievedAddress);\n        return true;\n    }\n\n\n    // TODO Create a function to mint new NFT only after the solution has been verified\n    //  - make sure the solution is unique (has not been used before)\n    //  - make sure you handle metadata as well as tokenSuplly\n    function newMint(\n                        uint[2] memory a,\n                        uint[2][2] memory b,\n                        uint[2] memory c,\n                        uint[2] memory input,\n                        uint256 tokenId\n                    )\n                    public\n                    returns(bool)\n    {\n        require(store[msg.sender].Address == address(0), \"The solution is not unique\");\n        require(verifier.verifyTx(a, b, c, input),\"Verification failed\");\n        addSolution(tokenId, msg.sender);\n        super._mint(msg.sender, tokenId);\n        return true;\n    }\n  \n}\n\n\n\n\n\n\n\n\n\n\n\n\n\n\n\n\n\n\n\n\n\n\n\n",
  "sourcePath": "E:\\Blockchain-Capstone-master\\eth-contracts\\contracts\\SolnSquareVerifier.sol",
  "compiler": {
    "name": "solc",
    "version": "0.5.5+commit.47a71e8f.Emscripten.clang"
  },
  "schemaVersion": "3.4.3",
  "updatedAt": "2021-10-05T16:36:48.894Z",
  "networkType": "ethereum",
  "devdoc": {
    "methods": {
      "isApprovedForAll(address,address)": {
        "details": "Tells whether an operator is approved by a given owner",
        "params": {
          "operator": "operator address which you want to query the approval of",
          "owner": "owner address which you want to query the approval of"
        },
        "return": "bool whether the given operator is approved by the given owner"
      },
      "setApprovalForAll(address,bool)": {
        "details": "Sets or unsets the approval of a given operator An operator is allowed to transfer all tokens of the sender on their behalf",
        "params": {
          "approved": "representing the status of the approval to be set",
          "to": "operator address to set the approval"
        }
      },
      "supportsInterface(bytes4)": {
        "details": "implement supportsInterface(bytes4) using a lookup table"
      },
      "tokenByIndex(uint256)": {
        "details": "Gets the token ID at a given index of all the tokens in this contract Reverts if the index is greater or equal to the total number of tokens",
        "params": {
          "index": "uint256 representing the index to be accessed of the tokens list"
        },
        "return": "uint256 token ID at the given index of the tokens list"
      },
      "tokenOfOwnerByIndex(address,uint256)": {
        "details": "Gets the token ID at a given index of the tokens list of the requested owner",
        "params": {
          "index": "uint256 representing the index to be accessed of the requested tokens list",
          "owner": "address owning the tokens list to be accessed"
        },
        "return": "uint256 token ID at the given index of the tokens list owned by the requested address"
      },
      "totalSupply()": {
        "details": "Gets the total amount of tokens stored by the contract",
        "return": "uint256 representing the total amount of tokens"
      }
    }
  },
  "userdoc": {
    "methods": {
      "isOwner()": {
        "notice": "Check if the calling address is the owner of the contract"
      },
      "isPaused()": {
        "notice": "Check if the contract is Paused"
      }
    }
  }
}