{
  "contractName": "SolnSquareVerifier",
  "abi": [
    {
      "constant": true,
      "inputs": [
        {
          "name": "interfaceId",
          "type": "bytes4"
        }
      ],
      "name": "supportsInterface",
      "outputs": [
        {
          "name": "",
          "type": "bool"
        }
      ],
      "payable": false,
      "stateMutability": "view",
      "type": "function",
      "signature": "0x01ffc9a7"
    },
    {
      "constant": true,
      "inputs": [
        {
          "name": "tokenId",
          "type": "uint256"
        }
      ],
      "name": "getApproved",
      "outputs": [
        {
          "name": "",
          "type": "address"
        }
      ],
      "payable": false,
      "stateMutability": "view",
      "type": "function",
      "signature": "0x081812fc"
    },
    {
      "constant": false,
      "inputs": [
        {
          "name": "to",
          "type": "address"
        },
        {
          "name": "tokenId",
          "type": "uint256"
        }
      ],
      "name": "approve",
      "outputs": [],
      "payable": false,
      "stateMutability": "nonpayable",
      "type": "function",
      "signature": "0x095ea7b3"
    },
    {
      "constant": true,
      "inputs": [],
      "name": "getSymbol",
      "outputs": [
        {
          "name": "",
          "type": "string"
        }
      ],
      "payable": false,
      "stateMutability": "view",
      "type": "function",
      "signature": "0x15070401"
    },
    {
      "constant": true,
      "inputs": [],
      "name": "getName",
      "outputs": [
        {
          "name": "",
          "type": "string"
        }
      ],
      "payable": false,
      "stateMutability": "view",
      "type": "function",
      "signature": "0x17d7de7c"
    },
    {
      "constant": true,
      "inputs": [],
      "name": "totalSupply",
      "outputs": [
        {
          "name": "",
          "type": "uint256"
        }
      ],
      "payable": false,
      "stateMutability": "view",
      "type": "function",
      "signature": "0x18160ddd"
    },
    {
      "constant": false,
      "inputs": [
        {
          "name": "from",
          "type": "address"
        },
        {
          "name": "to",
          "type": "address"
        },
        {
          "name": "tokenId",
          "type": "uint256"
        }
      ],
      "name": "transferFrom",
      "outputs": [],
      "payable": false,
      "stateMutability": "nonpayable",
      "type": "function",
      "signature": "0x23b872dd"
    },
    {
      "constant": false,
      "inputs": [
        {
          "name": "_myid",
          "type": "bytes32"
        },
        {
          "name": "_result",
          "type": "string"
        }
      ],
      "name": "__callback",
      "outputs": [],
      "payable": false,
      "stateMutability": "nonpayable",
      "type": "function",
      "signature": "0x27dc297e"
    },
    {
      "constant": true,
      "inputs": [
        {
          "name": "owner",
          "type": "address"
        },
        {
          "name": "index",
          "type": "uint256"
        }
      ],
      "name": "tokenOfOwnerByIndex",
      "outputs": [
        {
          "name": "",
          "type": "uint256"
        }
      ],
      "payable": false,
      "stateMutability": "view",
      "type": "function",
      "signature": "0x2f745c59"
    },
    {
      "constant": false,
      "inputs": [
        {
          "name": "_myid",
          "type": "bytes32"
        },
        {
          "name": "_result",
          "type": "string"
        },
        {
          "name": "_proof",
          "type": "bytes"
        }
      ],
      "name": "__callback",
      "outputs": [],
      "payable": false,
      "stateMutability": "nonpayable",
      "type": "function",
      "signature": "0x38bbfa50"
    },
    {
      "constant": false,
      "inputs": [
        {
          "name": "to",
          "type": "address"
        },
        {
          "name": "tokenID",
          "type": "uint256"
        }
      ],
      "name": "mint",
      "outputs": [],
      "payable": false,
      "stateMutability": "nonpayable",
      "type": "function",
      "signature": "0x40c10f19"
    },
    {
      "constant": false,
      "inputs": [
        {
          "name": "from",
          "type": "address"
        },
        {
          "name": "to",
          "type": "address"
        },
        {
          "name": "tokenId",
          "type": "uint256"
        }
      ],
      "name": "safeTransferFrom",
      "outputs": [],
      "payable": false,
      "stateMutability": "nonpayable",
      "type": "function",
      "signature": "0x42842e0e"
    },
    {
      "constant": true,
      "inputs": [],
      "name": "getbaseTokenURI",
      "outputs": [
        {
          "name": "",
          "type": "string"
        }
      ],
      "payable": false,
      "stateMutability": "view",
      "type": "function",
      "signature": "0x447ec2b7"
    },
    {
      "constant": true,
      "inputs": [
        {
          "name": "index",
          "type": "uint256"
        }
      ],
      "name": "tokenByIndex",
      "outputs": [
        {
          "name": "",
          "type": "uint256"
        }
      ],
      "payable": false,
      "stateMutability": "view",
      "type": "function",
      "signature": "0x4f6ccce7"
    },
    {
      "constant": false,
      "inputs": [
        {
          "name": "a",
          "type": "uint256[2]"
        },
        {
          "name": "b",
          "type": "uint256[2][2]"
        },
        {
          "name": "c",
          "type": "uint256[2]"
        },
        {
          "name": "input",
          "type": "uint256[2]"
        }
      ],
      "name": "verifyTx",
      "outputs": [
        {
          "name": "r",
          "type": "bool"
        }
      ],
      "payable": false,
      "stateMutability": "nonpayable",
      "type": "function",
      "signature": "0x621e9ec0"
    },
    {
      "constant": true,
      "inputs": [
        {
          "name": "tokenId",
          "type": "uint256"
        }
      ],
      "name": "ownerOf",
      "outputs": [
        {
          "name": "",
          "type": "address"
        }
      ],
      "payable": false,
      "stateMutability": "view",
      "type": "function",
      "signature": "0x6352211e"
    },
    {
      "constant": true,
      "inputs": [
        {
          "name": "owner",
          "type": "address"
        }
      ],
      "name": "balanceOf",
      "outputs": [
        {
          "name": "",
          "type": "uint256"
        }
      ],
      "payable": false,
      "stateMutability": "view",
      "type": "function",
      "signature": "0x70a08231"
    },
    {
      "constant": false,
      "inputs": [],
      "name": "pause",
      "outputs": [],
      "payable": false,
      "stateMutability": "nonpayable",
      "type": "function",
      "signature": "0x8456cb59"
    },
    {
      "constant": true,
      "inputs": [],
      "name": "owner",
      "outputs": [
        {
          "name": "",
          "type": "address"
        }
      ],
      "payable": false,
      "stateMutability": "view",
      "type": "function",
      "signature": "0x8da5cb5b"
    },
    {
      "constant": true,
      "inputs": [],
      "name": "isOwner",
      "outputs": [
        {
          "name": "",
          "type": "bool"
        }
      ],
      "payable": false,
      "stateMutability": "view",
      "type": "function",
      "signature": "0x8f32d59b"
    },
    {
      "constant": false,
      "inputs": [
        {
          "name": "to",
          "type": "address"
        },
        {
          "name": "approved",
          "type": "bool"
        }
      ],
      "name": "setApprovalForAll",
      "outputs": [],
      "payable": false,
      "stateMutability": "nonpayable",
      "type": "function",
      "signature": "0xa22cb465"
    },
    {
      "constant": true,
      "inputs": [],
      "name": "isPaused",
      "outputs": [
        {
          "name": "",
          "type": "bool"
        }
      ],
      "payable": false,
      "stateMutability": "view",
      "type": "function",
      "signature": "0xb187bd26"
    },
    {
      "constant": false,
      "inputs": [
        {
          "name": "from",
          "type": "address"
        },
        {
          "name": "to",
          "type": "address"
        },
        {
          "name": "tokenId",
          "type": "uint256"
        },
        {
          "name": "_data",
          "type": "bytes"
        }
      ],
      "name": "safeTransferFrom",
      "outputs": [],
      "payable": false,
      "stateMutability": "nonpayable",
      "type": "function",
      "signature": "0xb88d4fde"
    },
    {
      "constant": true,
      "inputs": [
        {
          "name": "tokenId",
          "type": "uint256"
        }
      ],
      "name": "tokenURI",
      "outputs": [
        {
          "name": "",
          "type": "string"
        }
      ],
      "payable": false,
      "stateMutability": "view",
      "type": "function",
      "signature": "0xc87b56dd"
    },
    {
      "constant": true,
      "inputs": [
        {
          "name": "owner",
          "type": "address"
        },
        {
          "name": "operator",
          "type": "address"
        }
      ],
      "name": "isApprovedForAll",
      "outputs": [
        {
          "name": "",
          "type": "bool"
        }
      ],
      "payable": false,
      "stateMutability": "view",
      "type": "function",
      "signature": "0xe985e9c5"
    },
    {
      "constant": false,
      "inputs": [
        {
          "name": "newOwner",
          "type": "address"
        }
      ],
      "name": "transferOwnership",
      "outputs": [],
      "payable": false,
      "stateMutability": "nonpayable",
      "type": "function",
      "signature": "0xf2fde38b"
    },
    {
      "anonymous": false,
      "inputs": [
        {
          "indexed": false,
          "name": "solutionsIndex",
          "type": "uint256"
        },
        {
          "indexed": false,
          "name": "solutionsAdd",
          "type": "address"
        }
      ],
      "name": "Added",
      "type": "event",
      "signature": "0x8ba5cdc385bc6c37c9a05ad09fbc238589c43602f4cee09c46856027df8a935a"
    },
    {
      "anonymous": false,
      "inputs": [
        {
          "indexed": false,
          "name": "s",
          "type": "string"
        }
      ],
      "name": "Verified",
      "type": "event",
      "signature": "0x3f3cfdb26fb5f9f1786ab4f1a1f9cd4c0b5e726cbdfc26e495261731aad44e39"
    },
    {
      "anonymous": false,
      "inputs": [
        {
          "indexed": true,
          "name": "from",
          "type": "address"
        },
        {
          "indexed": true,
          "name": "to",
          "type": "address"
        },
        {
          "indexed": true,
          "name": "tokenId",
          "type": "uint256"
        }
      ],
      "name": "Transfer",
      "type": "event",
      "signature": "0xddf252ad1be2c89b69c2b068fc378daa952ba7f163c4a11628f55a4df523b3ef"
    },
    {
      "anonymous": false,
      "inputs": [
        {
          "indexed": true,
          "name": "owner",
          "type": "address"
        },
        {
          "indexed": true,
          "name": "approved",
          "type": "address"
        },
        {
          "indexed": true,
          "name": "tokenId",
          "type": "uint256"
        }
      ],
      "name": "Approval",
      "type": "event",
      "signature": "0x8c5be1e5ebec7d5bd14f71427d1e84f3dd0314c0f7b2291e5b200ac8c7c3b925"
    },
    {
      "anonymous": false,
      "inputs": [
        {
          "indexed": true,
          "name": "owner",
          "type": "address"
        },
        {
          "indexed": true,
          "name": "operator",
          "type": "address"
        },
        {
          "indexed": false,
          "name": "approved",
          "type": "bool"
        }
      ],
      "name": "ApprovalForAll",
      "type": "event",
      "signature": "0x17307eab39ab6107e8899845ad3d59bd9653f200f220920489ca2b5937696c31"
    },
    {
      "anonymous": false,
      "inputs": [
        {
          "indexed": false,
          "name": "personPaused",
          "type": "address"
        }
      ],
      "name": "Paused",
      "type": "event",
      "signature": "0x62e78cea01bee320cd4e420270b5ea74000d11b0c9f74754ebdbfc544b05a258"
    },
    {
      "anonymous": false,
      "inputs": [
        {
          "indexed": false,
          "name": "personUnpaused",
          "type": "address"
        }
      ],
      "name": "Unpaused",
      "type": "event",
      "signature": "0x5db9ee0a495bf2e6ff9c91a7834c1ba4fdd244a5e8aa4e537bd38aeae4b073aa"
    },
    {
      "anonymous": false,
      "inputs": [
        {
          "indexed": true,
          "name": "oldOwner",
          "type": "address"
        },
        {
          "indexed": true,
          "name": "newOwner",
          "type": "address"
        }
      ],
      "name": "TransferOwnership",
      "type": "event",
      "signature": "0x5c486528ec3e3f0ea91181cff8116f02bfa350e03b8b6f12e00765adbb5af85c"
    },
    {
      "constant": false,
      "inputs": [
        {
          "name": "recievedIndex",
          "type": "uint256"
        },
        {
          "name": "recievedAddress",
          "type": "address"
        }
      ],
      "name": "addSolution",
      "outputs": [
        {
          "name": "",
          "type": "bool"
        }
      ],
      "payable": false,
      "stateMutability": "nonpayable",
      "type": "function",
      "signature": "0xccd0ef69"
    },
    {
      "constant": false,
      "inputs": [
        {
          "name": "a",
          "type": "uint256[2]"
        },
        {
          "name": "b",
          "type": "uint256[2][2]"
        },
        {
          "name": "c",
          "type": "uint256[2]"
        },
        {
          "name": "input",
          "type": "uint256[2]"
        },
        {
          "name": "tokenId",
          "type": "uint256"
        }
      ],
      "name": "newMint",
      "outputs": [
        {
          "name": "",
          "type": "bool"
        }
      ],
      "payable": false,
      "stateMutability": "nonpayable",
      "type": "function",
      "signature": "0xc4cf6908"
    }
  ],
  "bytecode": "0x608060405260006014556040518060400160405280600681526020017f42617368544f00000000000000000000000000000000000000000000000000008152506040518060400160405280600281526020017f42540000000000000000000000000000000000000000000000000000000000008152506040518060600160405280603f8152602001620047d9603f9139336000806101000a81548173ffffffffffffffffffffffffffffffffffffffff021916908373ffffffffffffffffffffffffffffffffffffffff1602179055506000809054906101000a900473ffffffffffffffffffffffffffffffffffffffff1673ffffffffffffffffffffffffffffffffffffffff16600073ffffffffffffffffffffffffffffffffffffffff167f5c486528ec3e3f0ea91181cff8116f02bfa350e03b8b6f12e00765adbb5af85c60405160405180910390a360008060146101000a81548160ff021916908315150217905550620001a26301ffc9a77c010000000000000000000000000000000000000000000000000000000002620002ad640100000000026401000000009004565b620001df6380ac58cd7c010000000000000000000000000000000000000000000000000000000002620002ad640100000000026401000000009004565b6200021c63780e9d637c010000000000000000000000000000000000000000000000000000000002620002ad640100000000026401000000009004565b82600f9080519060200190620002349291906200036b565b5081601090805190602001906200024d9291906200036b565b508060119080519060200190620002669291906200036b565b50620002a4635b5e139f7c010000000000000000000000000000000000000000000000000000000002620002ad640100000000026401000000009004565b5050506200041a565b63ffffffff7c010000000000000000000000000000000000000000000000000000000002817bffffffffffffffffffffffffffffffffffffffffffffffffffffffff191614151515620002ff57600080fd5b6001806000837bffffffffffffffffffffffffffffffffffffffffffffffffffffffff19167bffffffffffffffffffffffffffffffffffffffffffffffffffffffff1916815260200190815260200160002060006101000a81548160ff02191690831515021790555050565b828054600181600116156101000203166002900490600052602060002090601f016020900481019282601f10620003ae57805160ff1916838001178555620003df565b82800160010185558215620003df579182015b82811115620003de578251825591602001919060010190620003c1565b5b509050620003ee9190620003f2565b5090565b6200041791905b8082111562000413576000816000905550600101620003f9565b5090565b90565b6143af806200042a6000396000f3fe608060405234801561001057600080fd5b50600436106101e1576000357c010000000000000000000000000000000000000000000000000000000090048063621e9ec011610116578063b187bd26116100b4578063c87b56dd1161008e578063c87b56dd14610e4c578063ccd0ef6914610ef3578063e985e9c514610f59578063f2fde38b14610fd5576101e1565b8063b187bd2614610ba2578063b88d4fde14610bc4578063c4cf690814610cc9576101e1565b80638456cb59116100f05780638456cb5914610adc5780638da5cb5b14610ae65780638f32d59b14610b30578063a22cb46514610b52576101e1565b8063621e9ec01461089d5780636352211e14610a1657806370a0823114610a84576101e1565b806327dc297e1161018357806340c10f191161015d57806340c10f191461071c57806342842e0e1461076a578063447ec2b7146107d85780634f6ccce71461085b576101e1565b806327dc297e146104995780632f745c591461055e57806338bbfa50146105c0576101e1565b806315070401116101bf578063150704011461030757806317d7de7c1461038a57806318160ddd1461040d57806323b872dd1461042b576101e1565b806301ffc9a7146101e6578063081812fc1461024b578063095ea7b3146102b9575b600080fd5b610231600480360360208110156101fc57600080fd5b8101908080357bffffffffffffffffffffffffffffffffffffffffffffffffffffffff19169060200190929190505050611019565b604051808215151515815260200191505060405180910390f35b6102776004803603602081101561026157600080fd5b8101908080359060200190929190505050611081565b604051808273ffffffffffffffffffffffffffffffffffffffff1673ffffffffffffffffffffffffffffffffffffffff16815260200191505060405180910390f35b610305600480360360408110156102cf57600080fd5b81019080803573ffffffffffffffffffffffffffffffffffffffff169060200190929190803590602001909291905050506110be565b005b61030f6112c7565b6040518080602001828103825283818151815260200191508051906020019080838360005b8381101561034f578082015181840152602081019050610334565b50505050905090810190601f16801561037c5780820380516001836020036101000a031916815260200191505b509250505060405180910390f35b610392611369565b6040518080602001828103825283818151815260200191508051906020019080838360005b838110156103d25780820151818401526020810190506103b7565b50505050905090810190601f1680156103ff5780820380516001836020036101000a031916815260200191505b509250505060405180910390f35b61041561140b565b6040518082815260200191505060405180910390f35b6104976004803603606081101561044157600080fd5b81019080803573ffffffffffffffffffffffffffffffffffffffff169060200190929190803573ffffffffffffffffffffffffffffffffffffffff16906020019092919080359060200190929190505050611418565b005b61055c600480360360408110156104af57600080fd5b8101908080359060200190929190803590602001906401000000008111156104d657600080fd5b8201836020820111156104e857600080fd5b8035906020019184600183028401116401000000008311171561050a57600080fd5b91908080601f016020809104026020016040519081016040528093929190818152602001838380828437600081840152601f19601f82011690508083019250505050505050919291929050505061143d565b005b6105aa6004803603604081101561057457600080fd5b81019080803573ffffffffffffffffffffffffffffffffffffffff16906020019092919080359060200190929190505050611480565b6040518082815260200191505060405180910390f35b61071a600480360360608110156105d657600080fd5b8101908080359060200190929190803590602001906401000000008111156105fd57600080fd5b82018360208201111561060f57600080fd5b8035906020019184600183028401116401000000008311171561063157600080fd5b91908080601f016020809104026020016040519081016040528093929190818152602001838380828437600081840152601f19601f8201169050808301925050505050505091929192908035906020019064010000000081111561069457600080fd5b8201836020820111156106a657600080fd5b803590602001918460018302840111640100000000831117156106c857600080fd5b91908080601f016020809104026020016040519081016040528093929190818152602001838380828437600081840152601f19601f8201169050808301925050505050505091929192905050506114f7565b005b6107686004803603604081101561073257600080fd5b81019080803573ffffffffffffffffffffffffffffffffffffffff169060200190929190803590602001909291905050506114fc565b005b6107d66004803603606081101561078057600080fd5b81019080803573ffffffffffffffffffffffffffffffffffffffff169060200190929190803573ffffffffffffffffffffffffffffffffffffffff16906020019092919080359060200190929190505050611526565b005b6107e0611546565b6040518080602001828103825283818151815260200191508051906020019080838360005b83811015610820578082015181840152602081019050610805565b50505050905090810190601f16801561084d5780820380516001836020036101000a031916815260200191505b509250505060405180910390f35b6108876004803603602081101561087157600080fd5b81019080803590602001909291905050506115e8565b6040518082815260200191505060405180910390f35b6109fc60048036036101408110156108b457600080fd5b8101908080604001906002806020026040519081016040528092919082600260200280828437600081840152601f19601f82011690508083019250505050505091929192908060800190600280602002604051908101604052809291906000905b82821015610969578382604002016002806020026040519081016040528092919082600260200280828437600081840152601f19601f82011690508083019250505050505081526020019060010190610915565b50505050919291929080604001906002806020026040519081016040528092919082600260200280828437600081840152601f19601f820116905080830192505050505050919291929080604001906002806020026040519081016040528092919082600260200280828437600081840152601f19601f8201169050808301925050505050509192919290505050611620565b604051808215151515815260200191505060405180910390f35b610a4260048036036020811015610a2c57600080fd5b8101908080359060200190929190505050611885565b604051808273ffffffffffffffffffffffffffffffffffffffff1673ffffffffffffffffffffffffffffffffffffffff16815260200191505060405180910390f35b610ac660048036036020811015610a9a57600080fd5b81019080803573ffffffffffffffffffffffffffffffffffffffff1690602001909291905050506118c2565b6040518082815260200191505060405180910390f35b610ae4611912565b005b610aee611a22565b604051808273ffffffffffffffffffffffffffffffffffffffff1673ffffffffffffffffffffffffffffffffffffffff16815260200191505060405180910390f35b610b38611a4b565b604051808215151515815260200191505060405180910390f35b610ba060048036036040811015610b6857600080fd5b81019080803573ffffffffffffffffffffffffffffffffffffffff169060200190929190803515159060200190929190505050611aa2565b005b610baa611bde565b604051808215151515815260200191505060405180910390f35b610cc760048036036080811015610bda57600080fd5b81019080803573ffffffffffffffffffffffffffffffffffffffff169060200190929190803573ffffffffffffffffffffffffffffffffffffffff1690602001909291908035906020019092919080359060200190640100000000811115610c4157600080fd5b820183602082011115610c5357600080fd5b80359060200191846001830284011164010000000083111715610c7557600080fd5b91908080601f016020809104026020016040519081016040528093929190818152602001838380828437600081840152601f19601f820116905080830192505050505050509192919290505050611bf4565b005b610e326004803603610160811015610ce057600080fd5b8101908080604001906002806020026040519081016040528092919082600260200280828437600081840152601f19601f82011690508083019250505050505091929192908060800190600280602002604051908101604052809291906000905b82821015610d95578382604002016002806020026040519081016040528092919082600260200280828437600081840152601f19601f82011690508083019250505050505081526020019060010190610d41565b50505050919291929080604001906002806020026040519081016040528092919082600260200280828437600081840152601f19601f820116905080830192505050505050919291929080604001906002806020026040519081016040528092919082600260200280828437600081840152601f19601f820116905080830192505050505050919291929080359060200190929190505050611c1c565b604051808215151515815260200191505060405180910390f35b610e7860048036036020811015610e6257600080fd5b8101908080359060200190929190505050611dc5565b6040518080602001828103825283818151815260200191508051906020019080838360005b83811015610eb8578082015181840152602081019050610e9d565b50505050905090810190601f168015610ee55780820380516001836020036101000a031916815260200191505b509250505060405180910390f35b610f3f60048036036040811015610f0957600080fd5b8101908080359060200190929190803573ffffffffffffffffffffffffffffffffffffffff169060200190929190505050611e8e565b604051808215151515815260200191505060405180910390f35b610fbb60048036036040811015610f6f57600080fd5b81019080803573ffffffffffffffffffffffffffffffffffffffff169060200190929190803573ffffffffffffffffffffffffffffffffffffffff169060200190929190505050612073565b604051808215151515815260200191505060405180910390f35b61101760048036036020811015610feb57600080fd5b81019080803573ffffffffffffffffffffffffffffffffffffffff169060200190929190505050612107565b005b600060016000837bffffffffffffffffffffffffffffffffffffffffffffffffffffffff19167bffffffffffffffffffffffffffffffffffffffffffffffffffffffff1916815260200190815260200160002060009054906101000a900460ff169050919050565b60006003600083815260200190815260200160002060009054906101000a900473ffffffffffffffffffffffffffffffffffffffff169050919050565b6110c781611885565b73ffffffffffffffffffffffffffffffffffffffff168273ffffffffffffffffffffffffffffffffffffffff161415151561116a576040517f08c379a00000000000000000000000000000000000000000000000000000000081526004018080602001828103825260208152602001807f6973207468652073616d65206f776e6572206f662074686520746f6b656e496481525060200191505060405180910390fd5b611172611a22565b73ffffffffffffffffffffffffffffffffffffffff163373ffffffffffffffffffffffffffffffffffffffff1614806111bf5750600115156111bb6111b5611a22565b33612073565b1515145b1515611216576040517f08c379a000000000000000000000000000000000000000000000000000000000815260040180806020018281038252602881526020018061432b6028913960400191505060405180910390fd5b816003600083815260200190815260200160002060006101000a81548173ffffffffffffffffffffffffffffffffffffffff021916908373ffffffffffffffffffffffffffffffffffffffff160217905550808273ffffffffffffffffffffffffffffffffffffffff163373ffffffffffffffffffffffffffffffffffffffff167f8c5be1e5ebec7d5bd14f71427d1e84f3dd0314c0f7b2291e5b200ac8c7c3b92560405160405180910390a45050565b606060108054600181600116156101000203166002900480601f01602080910402602001604051908101604052809291908181526020018280546001816001161561010002031660029004801561135f5780601f106113345761010080835404028352916020019161135f565b820191906000526020600020905b81548152906001019060200180831161134257829003601f168201915b5050505050905090565b6060600f8054600181600116156101000203166002900480601f0160208091040260200160405190810160405280929190818152602001828054600181600116156101000203166002900480156114015780601f106113d657610100808354040283529160200191611401565b820191906000526020600020905b8154815290600101906020018083116113e457829003601f168201915b5050505050905090565b6000600880549050905090565b6114223382612126565b151561142d57600080fd5b6114388383836121bb565b505050565b61147c828260006040519080825280601f01601f1916602001820160405280156114765781602001600182028038833980820191505090505b506114f7565b5050565b600061148b836118c2565b8210151561149857600080fd5b600660008473ffffffffffffffffffffffffffffffffffffffff1673ffffffffffffffffffffffffffffffffffffffff168152602001908152602001600020828154811015156114e457fe5b9060005260206000200154905092915050565b505050565b611504611a4b565b151561150f57600080fd5b61151982826121df565b61152281612200565b5050565b61154183838360405180602001604052806000815250611bf4565b505050565b606060118054600181600116156101000203166002900480601f0160208091040260200160405190810160405280929190818152602001828054600181600116156101000203166002900480156115de5780601f106115b3576101008083540402835291602001916115de565b820191906000526020600020905b8154815290600101906020018083116115c157829003601f168201915b5050505050905090565b60006115f261140b565b821015156115ff57600080fd5b60088281548110151561160e57fe5b90600052602060002001549050919050565b600061162a6140b2565b604051806040016040528087600060028110151561164457fe5b6020020151815260200187600160028110151561165d57fe5b602002015181525081600001819052506040518060400160405280604051806040016040528088600060028110151561169257fe5b602002015160006002811015156116a557fe5b602002015181526020018860006002811015156116be57fe5b602002015160016002811015156116d157fe5b6020020151815250815260200160405180604001604052808860016002811015156116f857fe5b6020020151600060028110151561170b57fe5b6020020151815260200188600160028110151561172457fe5b6020020151600160028110151561173757fe5b60200201518152508152508160200181905250604051806040016040528085600060028110151561176457fe5b6020020151815260200185600160028110151561177d57fe5b60200201518152508160400181905250606060026040519080825280602002602001820160405280156117bf5781602001602082028038833980820191505090505b50905060008090505b600281101561180d5784816002811015156117df57fe5b602002015182828151811015156117f257fe5b906020019060200201818152505080806001019150506117c8565b50600061181a8284612353565b1415611876577f3f3cfdb26fb5f9f1786ab4f1a1f9cd4c0b5e726cbdfc26e495261731aad44e396040518080602001828103825260228152602001806143096022913960400191505060405180910390a160019250505061187d565b6000925050505b949350505050565b60006002600083815260200190815260200160002060009054906101000a900473ffffffffffffffffffffffffffffffffffffffff169050919050565b600061190b600460008473ffffffffffffffffffffffffffffffffffffffff1673ffffffffffffffffffffffffffffffffffffffff168152602001908152602001600020612490565b9050919050565b61191a611bde565b15151561198f576040517f08c379a00000000000000000000000000000000000000000000000000000000081526004018080602001828103825260108152602001807f5061757361626c653a207061757365640000000000000000000000000000000081525060200191505060405180910390fd5b611997611a4b565b15156119a257600080fd5b6001600060146101000a81548160ff0219169083151502179055507f62e78cea01bee320cd4e420270b5ea74000d11b0c9f74754ebdbfc544b05a25833604051808273ffffffffffffffffffffffffffffffffffffffff1673ffffffffffffffffffffffffffffffffffffffff16815260200191505060405180910390a1565b60008060009054906101000a900473ffffffffffffffffffffffffffffffffffffffff16905090565b60008060009054906101000a900473ffffffffffffffffffffffffffffffffffffffff1673ffffffffffffffffffffffffffffffffffffffff163373ffffffffffffffffffffffffffffffffffffffff1614905090565b3373ffffffffffffffffffffffffffffffffffffffff168273ffffffffffffffffffffffffffffffffffffffff1614151515611add57600080fd5b80600560003373ffffffffffffffffffffffffffffffffffffffff1673ffffffffffffffffffffffffffffffffffffffff16815260200190815260200160002060008473ffffffffffffffffffffffffffffffffffffffff1673ffffffffffffffffffffffffffffffffffffffff16815260200190815260200160002060006101000a81548160ff0219169083151502179055508173ffffffffffffffffffffffffffffffffffffffff163373ffffffffffffffffffffffffffffffffffffffff167f17307eab39ab6107e8899845ad3d59bd9653f200f220920489ca2b5937696c3183604051808215151515815260200191505060405180910390a35050565b60008060149054906101000a900460ff16905090565b611bff848484611418565b611c0b8484848461249e565b1515611c1657600080fd5b50505050565b60008073ffffffffffffffffffffffffffffffffffffffff16601560003373ffffffffffffffffffffffffffffffffffffffff1673ffffffffffffffffffffffffffffffffffffffff16815260200190815260200160002060010160009054906101000a900473ffffffffffffffffffffffffffffffffffffffff1673ffffffffffffffffffffffffffffffffffffffff16141515611d23576040517f08c379a000000000000000000000000000000000000000000000000000000000815260040180806020018281038252601a8152602001807f54686520736f6c7574696f6e206973206e6f7420756e6971756500000000000081525060200191505060405180910390fd5b611d2f86868686611620565b1515611da3576040517f08c379a00000000000000000000000000000000000000000000000000000000081526004018080602001828103825260138152602001807f566572696669636174696f6e206661696c65640000000000000000000000000081525060200191505060405180910390fd5b611dad8233611e8e565b50611db833836121df565b6001905095945050505050565b6060611dd0826126c1565b1515611ddb57600080fd5b601260008381526020019081526020016000208054600181600116156101000203166002900480601f016020809104026020016040519081016040528092919081815260200182805460018160011615610100020316600290048015611e825780601f10611e5757610100808354040283529160200191611e82565b820191906000526020600020905b815481529060010190602001808311611e6557829003601f168201915b50505050509050919050565b600060405180604001604052808481526020018373ffffffffffffffffffffffffffffffffffffffff168152506013601454815481101515611ecc57fe5b90600052602060002090600202016000820151816000015560208201518160010160006101000a81548173ffffffffffffffffffffffffffffffffffffffff021916908373ffffffffffffffffffffffffffffffffffffffff16021790555090505060405180604001604052808481526020018373ffffffffffffffffffffffffffffffffffffffff16815250601560003373ffffffffffffffffffffffffffffffffffffffff1673ffffffffffffffffffffffffffffffffffffffff1681526020019081526020016000206000820151816000015560208201518160010160006101000a81548173ffffffffffffffffffffffffffffffffffffffff021916908373ffffffffffffffffffffffffffffffffffffffff1602179055509050506014600081548092919060010191905055507f8ba5cdc385bc6c37c9a05ad09fbc238589c43602f4cee09c46856027df8a935a8383604051808381526020018273ffffffffffffffffffffffffffffffffffffffff1673ffffffffffffffffffffffffffffffffffffffff1681526020019250505060405180910390a16001905092915050565b6000600560008473ffffffffffffffffffffffffffffffffffffffff1673ffffffffffffffffffffffffffffffffffffffff16815260200190815260200160002060008373ffffffffffffffffffffffffffffffffffffffff1673ffffffffffffffffffffffffffffffffffffffff16815260200190815260200160002060009054906101000a900460ff16905092915050565b61210f611a4b565b151561211a57600080fd5b61212381612733565b50565b60008061213283611885565b90508073ffffffffffffffffffffffffffffffffffffffff168473ffffffffffffffffffffffffffffffffffffffff1614806121a157508373ffffffffffffffffffffffffffffffffffffffff1661218984611081565b73ffffffffffffffffffffffffffffffffffffffff16145b806121b257506121b18185612073565b5b91505092915050565b6121c683838361282d565b6121d08382612ae0565b6121da8282612c84565b505050565b6121e98282612d4b565b6121f38282612c84565b6121fc81612f1a565b5050565b612209816126c1565b151561227d576040517f08c379a00000000000000000000000000000000000000000000000000000000081526004018080602001828103825260158152602001807f746f6b656e494420646f65736e7420657869737473000000000000000000000081525060200191505060405180910390fd5b61232960118054600181600116156101000203166002900480601f0160208091040260200160405190810160405280929190818152602001828054600181600116156101000203166002900480156123165780601f106122eb57610100808354040283529160200191612316565b820191906000526020600020905b8154815290600101906020018083116122f957829003601f168201915b505050505061232483612f66565b6130bf565b60126000838152602001908152602001600020908051906020019061234f9291906140e6565b5050565b600061235d614166565b612365613103565b9050806080015151600185510114151561237e57600080fd5b6123866141ae565b6040518060400160405280600081526020016000815250905060008090505b8551811015612405576123f6826123f18560800151600185018151811015156123ca57fe5b9060200190602002015189858151811015156123e257fe5b9060200190602002015161355d565b6135f9565b915080806001019150506123a5565b5061242c818360800151600081518110151561241d57fe5b906020019060200201516135f9565b905061247284600001518560200151612444846136b6565b856040015161245689604001516136b6565b876060015161246889600001516136b6565b8960200151613752565b15156124835760019250505061248a565b6000925050505b92915050565b600081600001549050919050565b60006124bf8473ffffffffffffffffffffffffffffffffffffffff166138d6565b15156124ce57600190506126b9565b60008473ffffffffffffffffffffffffffffffffffffffff1663150b7a02338887876040518563ffffffff167c0100000000000000000000000000000000000000000000000000000000028152600401808573ffffffffffffffffffffffffffffffffffffffff1673ffffffffffffffffffffffffffffffffffffffff1681526020018473ffffffffffffffffffffffffffffffffffffffff1673ffffffffffffffffffffffffffffffffffffffff16815260200183815260200180602001828103825283818151815260200191508051906020019080838360005b838110156125c55780820151818401526020810190506125aa565b50505050905090810190601f1680156125f25780820380516001836020036101000a031916815260200191505b5095505050505050602060405180830381600087803b15801561261457600080fd5b505af1158015612628573d6000803e3d6000fd5b505050506040513d602081101561263e57600080fd5b8101908080519060200190929190505050905063150b7a027c0100000000000000000000000000000000000000000000000000000000027bffffffffffffffffffffffffffffffffffffffffffffffffffffffff1916817bffffffffffffffffffffffffffffffffffffffffffffffffffffffff1916149150505b949350505050565b6000806002600084815260200190815260200160002060009054906101000a900473ffffffffffffffffffffffffffffffffffffffff169050600073ffffffffffffffffffffffffffffffffffffffff168173ffffffffffffffffffffffffffffffffffffffff161415915050919050565b600073ffffffffffffffffffffffffffffffffffffffff168173ffffffffffffffffffffffffffffffffffffffff161415151561276f57600080fd5b8073ffffffffffffffffffffffffffffffffffffffff166000809054906101000a900473ffffffffffffffffffffffffffffffffffffffff1673ffffffffffffffffffffffffffffffffffffffff167f5c486528ec3e3f0ea91181cff8116f02bfa350e03b8b6f12e00765adbb5af85c60405160405180910390a3806000806101000a81548173ffffffffffffffffffffffffffffffffffffffff021916908373ffffffffffffffffffffffffffffffffffffffff16021790555050565b61283681611885565b73ffffffffffffffffffffffffffffffffffffffff168373ffffffffffffffffffffffffffffffffffffffff161415156128bb576040517f08c379a00000000000000000000000000000000000000000000000000000000081526004018080602001828103825260318152602001806143536031913960400191505060405180910390fd5b8173ffffffffffffffffffffffffffffffffffffffff168273ffffffffffffffffffffffffffffffffffffffff161480156129235750600073ffffffffffffffffffffffffffffffffffffffff168273ffffffffffffffffffffffffffffffffffffffff1614155b1515612997576040517f08c379a000000000000000000000000000000000000000000000000000000000815260040180806020018281038252601a8152602001807f496e76616c6964207472616e736665726564206164647265737300000000000081525060200191505060405180910390fd5b6129a0816138e9565b6129e7600460008573ffffffffffffffffffffffffffffffffffffffff1673ffffffffffffffffffffffffffffffffffffffff1681526020019081526020016000206139a9565b816002600083815260200190815260200160002060006101000a81548173ffffffffffffffffffffffffffffffffffffffff021916908373ffffffffffffffffffffffffffffffffffffffff160217905550612a80600460008473ffffffffffffffffffffffffffffffffffffffff1673ffffffffffffffffffffffffffffffffffffffff1681526020019081526020016000206139cc565b808273ffffffffffffffffffffffffffffffffffffffff168473ffffffffffffffffffffffffffffffffffffffff167fddf252ad1be2c89b69c2b068fc378daa952ba7f163c4a11628f55a4df523b3ef60405160405180910390a4505050565b6000612b386001600660008673ffffffffffffffffffffffffffffffffffffffff1673ffffffffffffffffffffffffffffffffffffffff168152602001908152602001600020805490506139e290919063ffffffff16565b90506000600760008481526020019081526020016000205490508181141515612c2b576000600660008673ffffffffffffffffffffffffffffffffffffffff1673ffffffffffffffffffffffffffffffffffffffff16815260200190815260200160002083815481101515612ba957fe5b9060005260206000200154905080600660008773ffffffffffffffffffffffffffffffffffffffff1673ffffffffffffffffffffffffffffffffffffffff16815260200190815260200160002083815481101515612c0357fe5b9060005260206000200181905550816007600083815260200190815260200160002081905550505b600660008573ffffffffffffffffffffffffffffffffffffffff1673ffffffffffffffffffffffffffffffffffffffff168152602001908152602001600020805480919060019003612c7d91906141c8565b5050505050565b600660008373ffffffffffffffffffffffffffffffffffffffff1673ffffffffffffffffffffffffffffffffffffffff168152602001908152602001600020805490506007600083815260200190815260200160002081905550600660008373ffffffffffffffffffffffffffffffffffffffff1673ffffffffffffffffffffffffffffffffffffffff1681526020019081526020016000208190806001815401808255809150509060018203906000526020600020016000909192909190915055505050565b60001515612d58826126c1565b15151480612dca57508173ffffffffffffffffffffffffffffffffffffffff168273ffffffffffffffffffffffffffffffffffffffff16148015612dc95750600073ffffffffffffffffffffffffffffffffffffffff168273ffffffffffffffffffffffffffffffffffffffff1614155b5b1515612e21576040517f08c379a00000000000000000000000000000000000000000000000000000000081526004018080602001828103825260278152602001806142e26027913960400191505060405180910390fd5b816002600083815260200190815260200160002060006101000a81548173ffffffffffffffffffffffffffffffffffffffff021916908373ffffffffffffffffffffffffffffffffffffffff160217905550612eba600460008473ffffffffffffffffffffffffffffffffffffffff1673ffffffffffffffffffffffffffffffffffffffff1681526020019081526020016000206139cc565b808273ffffffffffffffffffffffffffffffffffffffff16600073ffffffffffffffffffffffffffffffffffffffff167fddf252ad1be2c89b69c2b068fc378daa952ba7f163c4a11628f55a4df523b3ef60405160405180910390a45050565b6008805490506009600083815260200190815260200160002081905550600881908060018154018082558091505090600182039060005260206000200160009091929091909150555050565b60606000821415612fae576040518060400160405280600181526020017f300000000000000000000000000000000000000000000000000000000000000081525090506130ba565b600082905060005b600082141515612fdc578080600101915050600a82811515612fd457fe5b049150612fb6565b6060816040519080825280601f01601f1916602001820160405280156130115781602001600182028038833980820191505090505b50905060006001830390505b6000861415156130b257600a8681151561303357fe5b066030017f01000000000000000000000000000000000000000000000000000000000000000282828060019003935081518110151561306e57fe5b9060200101907effffffffffffffffffffffffffffffffffffffffffffffffffffffffffffff1916908160001a905350600a868115156130aa57fe5b04955061301d565b819450505050505b919050565b60606130fb8383604051806020016040528060008152506040518060200160405280600081525060405180602001604052806000815250613a04565b905092915050565b61310b614166565b60405180604001604052807f0d8d4d9b9efc554bab1ce1024918f488a191107c4b7bd39b8926ba52e44f143b81526020017f2dcbcb3c92028498832200297e104a712e6c03c7d7b740a99baad5d4aa3004b98152508160000181905250604051806040016040528060405180604001604052807f0744ac78582cea0ed5554541f6048241ac82f6ca00d4c295de1c18754a822eb781526020017f0f8b265f1d0a8c752f5edd3fd864f87f260591d934281a199eb38c650aea651c815250815260200160405180604001604052807f20b8ae9116f8fe9981f96f1643ecea3df176b5fa5ef63425f71d3ba22444932081526020017f06200477a3a4208309d4382d9482f17e44b831f78593a6b161dd15b9f43627fc8152508152508160200181905250604051806040016040528060405180604001604052807f15dbc3d1d7e08aa379f036aa40e1ca0f859bb73933d6c46393bca682eed4837f81526020017f1dd60eb7280671564de78f5e4c9b5ebb12a3ab67bb04f4ca3ad64096c85b632b815250815260200160405180604001604052807f1b940de3409f02243be422c8c7b40fec9d041625237875f268ceede56abaffea81526020017f0bddb139f753641d67a63058429d825c242f196dcf104d7036aed0cc94a198ed8152508152508160400181905250604051806040016040528060405180604001604052807f1b2eb16c2986793cb1ed0df869b7b10607572e787fca62837d5986ed02243f7d81526020017f2f3106344ca87db2674c55f5300f5e0c95d74cfe142dc87208444d1f22702d5c815250815260200160405180604001604052807f25333e352428bd0c9244e0318f8f964b3954777cb665b2f0baacc94ed84f33d381526020017f01d37e36b694353d59c8b5f6b9e529ae0d18169c72922a3c5eecc50d6036b67e815250815250816060018190525060036040519080825280602002602001820160405280156133f257816020015b6133df6141f4565b8152602001906001900390816133d75790505b50816080018190525060405180604001604052807f2122e05b38da7197f38f5f9bde7e595145259e0b98cf65395ae63027cae9e30881526020017f296fe5a908418ac75ddab05d02b19076d18fd1683f35463f921a1deaa2f5fce68152508160800151600081518110151561346357fe5b9060200190602002018190525060405180604001604052807f16c9960ba9dbd87c411717e837d4e41eccfe91318c0e4784ff8914c3ba6fb3fd81526020017f06410e2c2836ef82b8226a6176b6b006cfe5b72bacf02b50025781c0bff53a91815250816080015160018151811015156134d857fe5b9060200190602002018190525060405180604001604052807f0452a501d224ad2398b461f6c92a4ff86c9e2894926e01f88c2c9fa0f65cc18a81526020017f05d1468ff5cb3346d5ae2cb90ee4b9a2c2056762a393a373ccdb3ef748f855e78152508160800151600281518110151561354d57fe5b9060200190602002018190525090565b6135656141ae565b61356d61420e565b836000015181600060038110151561358157fe5b602002018181525050836020015181600160038110151561359e57fe5b602002018181525050828160026003811015156135b757fe5b6020020181815250506000606083608084600060076107d05a03f1905080600081146135e2576135e4565bfe5b508015156135f157600080fd5b505092915050565b6136016141ae565b613609614230565b836000015181600060048110151561361d57fe5b602002018181525050836020015181600160048110151561363a57fe5b602002018181525050826000015181600260048110151561365757fe5b602002018181525050826020015181600360048110151561367457fe5b602002018181525050600060608360c084600060066107d05a03f19050806000811461369f576136a1565bfe5b508015156136ae57600080fd5b505092915050565b6136be6141ae565b60007f30644e72e131a029b85045b68181585d97816a916871ca8d3c208c16d87cfd479050600083600001511480156136fb575060008360200151145b1561371f57604051806040016040528060008152602001600081525091505061374d565b60405180604001604052808460000151815260200182856020015181151561374357fe5b0683038152509150505b919050565b60006060600460405190808252806020026020018201604052801561379157816020015b61377e6141f4565b8152602001906001900390816137765790505b509050606060046040519080825280602002602001820160405280156137d157816020015b6137be614252565b8152602001906001900390816137b65790505b5090508a8260008151811015156137e457fe5b906020019060200201819052508882600181518110151561380157fe5b906020019060200201819052508682600281518110151561381e57fe5b906020019060200201819052508482600381518110151561383b57fe5b906020019060200201819052508981600081518110151561385857fe5b906020019060200201819052508781600181518110151561387557fe5b906020019060200201819052508581600281518110151561389257fe5b90602001906020020181905250838160038151811015156138af57fe5b906020019060200201819052506138c68282613e1f565b9250505098975050505050505050565b600080823b905060008111915050919050565b600073ffffffffffffffffffffffffffffffffffffffff166003600083815260200190815260200160002060009054906101000a900473ffffffffffffffffffffffffffffffffffffffff1673ffffffffffffffffffffffffffffffffffffffff161415156139a65760006003600083815260200190815260200160002060006101000a81548173ffffffffffffffffffffffffffffffffffffffff021916908373ffffffffffffffffffffffffffffffffffffffff1602179055505b50565b6139c1600182600001546139e290919063ffffffff16565b816000018190555050565b6001816000016000828254019250508190555050565b60008282111515156139f357600080fd5b600082840390508091505092915050565b6060808690506060869050606086905060608690506060869050606081518351855187518951010101016040519080825280601f01601f191660200182016040528015613a605781602001600182028038833980820191505090505b509050606081905060008090506000809050600090505b8851811015613b2a578881815181101515613a8e57fe5b9060200101517f010000000000000000000000000000000000000000000000000000000000000090047f0100000000000000000000000000000000000000000000000000000000000000028383806001019450815181101515613aed57fe5b9060200101907effffffffffffffffffffffffffffffffffffffffffffffffffffffffffffff1916908160001a9053508080600101915050613a77565b600090505b8751811015613be2578781815181101515613b4657fe5b9060200101517f010000000000000000000000000000000000000000000000000000000000000090047f0100000000000000000000000000000000000000000000000000000000000000028383806001019450815181101515613ba557fe5b9060200101907effffffffffffffffffffffffffffffffffffffffffffffffffffffffffffff1916908160001a9053508080600101915050613b2f565b600090505b8651811015613c9a578681815181101515613bfe57fe5b9060200101517f010000000000000000000000000000000000000000000000000000000000000090047f0100000000000000000000000000000000000000000000000000000000000000028383806001019450815181101515613c5d57fe5b9060200101907effffffffffffffffffffffffffffffffffffffffffffffffffffffffffffff1916908160001a9053508080600101915050613be7565b600090505b8551811015613d52578581815181101515613cb657fe5b9060200101517f010000000000000000000000000000000000000000000000000000000000000090047f0100000000000000000000000000000000000000000000000000000000000000028383806001019450815181101515613d1557fe5b9060200101907effffffffffffffffffffffffffffffffffffffffffffffffffffffffffffff1916908160001a9053508080600101915050613c9f565b600090505b8451811015613e0a578481815181101515613d6e57fe5b9060200101517f010000000000000000000000000000000000000000000000000000000000000090047f0100000000000000000000000000000000000000000000000000000000000000028383806001019450815181101515613dcd57fe5b9060200101907effffffffffffffffffffffffffffffffffffffffffffffffffffffffffffff1916908160001a9053508080600101915050613d57565b82995050505050505050505095945050505050565b600081518351141515613e3157600080fd5b6000835190506000600682029050606081604051908082528060200260200182016040528015613e705781602001602082028038833980820191505090505b50905060008090505b8381101561404e578681815181101515613e8f57fe5b90602001906020020151600001518260006006840201815181101515613eb157fe5b90602001906020020181815250508681815181101515613ecd57fe5b90602001906020020151602001518260016006840201815181101515613eef57fe5b90602001906020020181815250508581815181101515613f0b57fe5b90602001906020020151600001516000600281101515613f2757fe5b60200201518260026006840201815181101515613f4057fe5b90602001906020020181815250508581815181101515613f5c57fe5b90602001906020020151600001516001600281101515613f7857fe5b60200201518260036006840201815181101515613f9157fe5b90602001906020020181815250508581815181101515613fad57fe5b90602001906020020151602001516000600281101515613fc957fe5b60200201518260046006840201815181101515613fe257fe5b90602001906020020181815250508581815181101515613ffe57fe5b9060200190602002015160200151600160028110151561401a57fe5b6020020151826005600684020181518110151561403357fe5b90602001906020020181815250508080600101915050613e79565b50614057614278565b60006020826020860260208601600060086107d05a03f19050806000811461407e57614080565bfe5b5080151561408d57600080fd5b600082600060018110151561409e57fe5b602002015114159550505050505092915050565b6040518061010001604052806140c66141f4565b81526020016140d3614252565b81526020016140e06141f4565b81525090565b828054600181600116156101000203166002900490600052602060002090601f016020900481019282601f1061412757805160ff1916838001178555614155565b82800160010185558215614155579182015b82811115614154578251825591602001919060010190614139565b5b509050614162919061429a565b5090565b604051806101e0016040528061417a6141f4565b8152602001614187614252565b8152602001614194614252565b81526020016141a1614252565b8152602001606081525090565b604051806040016040528060008152602001600081525090565b8154818355818111156141ef578183600052602060002091820191016141ee919061429a565b5b505050565b604051806040016040528060008152602001600081525090565b6040518060600160405280600390602082028038833980820191505090505090565b6040518060800160405280600490602082028038833980820191505090505090565b60405180608001604052806142656142bf565b81526020016142726142bf565b81525090565b6040518060200160405280600190602082028038833980820191505090505090565b6142bc91905b808211156142b85760008160009055506001016142a0565b5090565b90565b604051806040016040528060029060208202803883398082019150509050509056fe546f6b656e20616c726561647920657869737473206f7220496e76616c696420616464726573735472616e73616374696f6e207375636365737366756c6c792076657269666965642e6973206e6f74206f776e6572204f72206973206e6f74206973417070726f766564466f72416c6c205468652073656e6465722061646472657373206973206e6f7420746865206f776e6572206f66207468697320746f6b656ea165627a7a72305820b7d9860a2359d78287226b39f6ac1c540fc139285a520bf8edd30b664fa2dbe7002968747470733a2f2f73332d75732d776573742d322e616d617a6f6e6177732e636f6d2f756461636974792d626c6f636b636861696e2f63617073746f6e652f",
  "source": "pragma solidity >=0.4.21 <0.6.0;\n\n// TODO define a contract call to the zokrates generated solidity contract <Verifier> or <renamedVerifier>\nimport './Verifier.sol';\nimport './ERC721Mintable.sol';\n\n\n// TODO define another contract named SolnSquareVerifier that inherits from your ERC721Mintable class\ncontract SolnSquareVerifier is CustomERC721Token, Verifier {\n\n/*\n    constructor(address verifierAddress, string memory name, string memory symbol) CustomERC721Token(name, symbol) public \n    {\n        verifierContract = Verifier(verifierAddress);\n    }\n*/\n    // TODO define a solutions struct that can hold an index & an address\n    struct solutions {\n        uint256 index;\n        address Address;\n    }\n\n    // TODO define an array of the above struct\n    solutions[] private sol;\n\n    // solutions array counter \n    uint256 counter = 0;\n\n    // TODO define a mapping to store unique solutions submitted\n    mapping(address => solutions ) private store;\n\n\n    // TODO Create an event to emit when a solution is added\n    event Added(uint256 solutionsIndex, address solutionsAdd);\n\n\n    // TODO Create a function to add the solutions to the array and emit the event\n    function addSolution(\n                            uint256 recievedIndex,\n                            address recievedAddress\n                        )\n                        public\n                        returns(bool)\n    {\n        sol[counter] = solutions(recievedIndex, recievedAddress);\n        store[msg.sender] = solutions(recievedIndex, recievedAddress);\n        counter++;\n        emit Added(recievedIndex, recievedAddress);\n        return true;\n    }\n\n\n    // TODO Create a function to mint new NFT only after the solution has been verified\n    //  - make sure the solution is unique (has not been used before)\n    //  - make sure you handle metadata as well as tokenSuplly\n    function newMint(\n                        uint[2] memory a,\n                        uint[2][2] memory b,\n                        uint[2] memory c,\n                        uint[2] memory input,\n                        uint256 tokenId\n                    )\n                    public\n                    returns(bool)\n    {\n        require(store[msg.sender].Address == address(0), \"The solution is not unique\");\n        require(verifyTx(a, b, c, input),\"Verification failed\");\n        addSolution(tokenId, msg.sender);\n        super._mint(msg.sender, tokenId);\n        return true;\n    }\n  \n}\n\n\n\n\n\n\n\n\n\n\n\n\n\n\n\n\n\n\n\n\n\n\n\n\n\n\n",
  "sourcePath": "E:/Blockchain-Capstone-master/eth-contracts/contracts/SolnSquareVerifier.sol",
  "compiler": {
    "name": "solc",
    "version": "0.5.5+commit.47a71e8f.Emscripten.clang"
  },
  "schemaVersion": "3.0.1",
  "updatedAt": "2021-10-04T00:41:26.168Z",
  "devdoc": {
    "methods": {
      "isApprovedForAll(address,address)": {
        "details": "Tells whether an operator is approved by a given owner",
        "params": {
          "operator": "operator address which you want to query the approval of",
          "owner": "owner address which you want to query the approval of"
        },
        "return": "bool whether the given operator is approved by the given owner"
      },
      "setApprovalForAll(address,bool)": {
        "details": "Sets or unsets the approval of a given operator An operator is allowed to transfer all tokens of the sender on their behalf",
        "params": {
          "approved": "representing the status of the approval to be set",
          "to": "operator address to set the approval"
        }
      },
      "supportsInterface(bytes4)": {
        "details": "implement supportsInterface(bytes4) using a lookup table"
      },
      "tokenByIndex(uint256)": {
        "details": "Gets the token ID at a given index of all the tokens in this contract Reverts if the index is greater or equal to the total number of tokens",
        "params": {
          "index": "uint256 representing the index to be accessed of the tokens list"
        },
        "return": "uint256 token ID at the given index of the tokens list"
      },
      "tokenOfOwnerByIndex(address,uint256)": {
        "details": "Gets the token ID at a given index of the tokens list of the requested owner",
        "params": {
          "index": "uint256 representing the index to be accessed of the requested tokens list",
          "owner": "address owning the tokens list to be accessed"
        },
        "return": "uint256 token ID at the given index of the tokens list owned by the requested address"
      },
      "totalSupply()": {
        "details": "Gets the total amount of tokens stored by the contract",
        "return": "uint256 representing the total amount of tokens"
      }
    }
  },
  "userdoc": {
    "methods": {
      "isOwner()": {
        "notice": "Check if the calling address is the owner of the contract"
      },
      "isPaused()": {
        "notice": "Check if the contract is Paused"
      }
    }
  }
}